:020000040800F2
:100000009009002079020008B7390008113600086D
:10001000B5390008B9060008E540000800000000F6
:10002000000000000000000000000000BB390008D4
:100030009707000800000000B9390008253A0008B9
:10004000930200089302000893020008930200083C
:10005000930200089302000893020008930200082C
:10006000930200089302000893020008BD060008EE
:10007000D9060008930200089302000893020008C2
:1000800093020008930200089302000893020008FC
:1000900093020008930200089302000893020008EC
:1000A00093020008B93A000893020008930200087E
:1000B00093020008930200089302000893020008CC
:1000C00093020008930200089302000893020008BC
:1000D00093020008D9400008930200089302000828
:1000E000930200089302000893020008930200089C
:1000F000930200089302000893020008930200088C
:10010000930200089302000893020008930200087B
:10011000930200089302000893020008930200086B
:10012000930200089302000893020008930200085B
:10013000930200089302000893020008930200084B
:10014000930200089302000893020008930200083B
:100150009302000893020008D534000893020008B7
:10016000930200089302000893020008930200081B
:10017000930200089302000893020008930200080B
:1001800093020008930200089302000893020008FB
:100190009302000800000000930200089302000888
:1001A00093020008930200089302000893020008DB
:1001B00093020008930200089302000893020008CB
:1001C00093020008930200089302000893020008BB
:1001D000930200089302000800F002F800F03CF8D7
:1001E0000AA090E8000C82448344AAF10107DA4592
:1001F00001D100F031F8AFF2090EBAE80F0013F0A8
:10020000010F18BFFB1A43F00103184770440000A8
:1002100090440000103A24BF78C878C1FAD8520739
:1002200024BF30C830C144BF04680C607047000070
:100230000023002400250026103A28BF78C1FBD8EF
:10024000520728BF30C148BF0B6070471FB504F08C
:10025000E8F91FBD10B510BD00F0CFF81146FFF74B
:10026000F5FF03F075FF00F0EDF803B4FFF7F2FFC0
:1002700003BC00F0F5F80000094880470948004732
:10028000FEE7FEE7FEE7FEE7FEE7FEE7FEE7FEE746
:10029000FEE7FEE704480549054A064B70470000A3
:1002A0009D3A0008D9010008900300209009002021
:1002B000900500209005002053EA020C00F06980B0
:1002C0002DE9F04B4FF00006002B1FBFB3FA83F56A
:1002D00003FA05F424FA05F65E4012BF1643B2FA9B
:1002E00082F502FA05F4C5F120051EBF22FA05FCCD
:1002F00044EA0C04203556EA044C4FEA144418BF73
:10030000641C4FF000084FF00009904271EB030CA1
:1003100039D3002919BFB1FA81F701FA07F6B0FA0B
:1003200080F700FA07F6C7F120071EBF20FA07FC86
:1003300046EA0C062037B6FBF4FCA7EB0507103F96
:1003400007F01F0BCBF120062CFA06F60CFA0BFB7C
:1003500044BFB3460026202FA4BF5E464FF0000BDB
:100360005BEA060C08BF4FF0010B19EB0B0948EBD9
:100370000608ABFB027C06FB02CC0BFB03CCC01BCC
:1003800071EB0C01C1E70B46024641464846BDE809
:10039000F08B13B54FF000004FF00001AFF3008079
:1003A000BDE81C4070474FF0000200B5134694466C
:1003B0009646203922BFA0E80C50A0E80C50B1F1BD
:1003C0002001BFF4F7AF090728BFA0E80C5048BFD1
:1003D0000CC05DF804EB890028BF40F8042B08BF6F
:1003E000704748BF20F8022B11F0804F18BF00F86B
:1003F000012B7047704770477047754600F02CF826
:10040000AE4605006946534620F00700854618B001
:1004100020B5FFF73FFFBDE820404FF000064FF04A
:1004200000074FF000084FF0000BAC46ACE8C009E5
:10043000ACE8C009ACE8C009ACE8C00921F007018C
:100440008D46704710B50446AFF300802046BDE8E6
:100450001040FFF70ABF000000487047100000205E
:1004600001491820ABBEFEE72600020070470000DD
:1004700070B50446006882688368DB0843EA92022C
:10048000D20758D0C26812F0007F10D0627F012AD4
:100490000DD1227F012A0AD1284A4FF0FF3103688B
:1004A00013F0400F07D101319142F8D339E002290E
:1004B00004D1022114E0402101600121826812F080
:1004C000040F09D0826812F0020F05D18268704BC8
:1004D0001A4042F010028260012901D1042614E082
:1004E000826812F0080F09D0826812F0020F05D15D
:1004F0008268674B1A4042F020028260042602297B
:1005000008BF0826032908BF0C2600F023FF054674
:100510002068806830420ED000F01CFF401B062887
:10052000F6D3E06D40F01000E065206E40F0010071
:100530002066012070BD002070BD00BF000040A3F8
:100540000146806AC36DC26D13F0500F07D0D2060A
:1005500048BF00F0E9BA406D426B0846104742F4CC
:100560000071C16501680B68CA6813F0080F0FD1EC
:1005700091070BD4C16D21F48071C165C16D11F477
:10058000805F02BFC16D41F00101C16500F0CABAD0
:1005900012F4406F18BF00F0C5BAC96811F4005FCB
:1005A000E8D0F3E7806AC16D41F04001C165016E9A
:1005B00041F00401016600F0B7BA806A00F0B3BAF6
:1005C000B0B50168044600208B688A6813F0020FFA
:1005D00028D112F0010208BFB0BD886800F00D00FC
:1005E000012816D188682A4A104040F0020088602D
:1005F0000320086000F0AEFE05462068806810F019
:10060000010F04BF0020B0BD00F0A4FE401B032872
:10061000F3D3E06D40F01000E065206E40F0010083
:1006200020660120B0BD00BF70B504460068816837
:1006300011F0010F2AD1164E816806F17F02114296
:100640001AD18168314041F00101816000F082FEE1
:1006500005462068016811F0010F17D1816811F07B
:10066000010F04D18168314041F00101816000F047
:1006700071FE401B0328ECD3E06D40F01000E065F4
:10068000206E40F001002066012070BD002070BD8A
:10069000C0FFFF7F10B50E4C204600F02BFC4D49EB
:1006A0002046022200F09CFB606D0068016821F08A
:1006B0000601016010BD00BFFEE700000448406D68
:1006C0000068016821F006010160024800F06FBC7B
:1006D00090000020FC000020014800F068BC00BF32
:1006E0005C01002010B5104C04F18002A4F57E716D
:1006F0002034C2640268436C8A4223F003013CBF89
:1007000040F60004C4F20204214481646FF0070142
:1007100051FA82F11422B1FBF2F1012201F01F0122
:1007200002FA01F1016510BD000802400379074992
:100730000122013B01F1400C01EB830103F01F0397
:100740009A40C0E9151CC265704700BF000902400D
:1007500010B5D0E913CE0124CCF804E0D0F854C091
:10076000BCF1000F1CBFD0E916CECCF804E0D0E9F4
:1007700010CE0EF01F0E04FA0EF4CCF804400468FC
:10078000636080681028084608BF1046A06008BF54
:100790000A46E26010BD7047704700000D4841886E
:1007A000028890ED040A90ED051A90ED062A90ED6E
:1007B000073A04EE102A05EE101AB8EE444AB8EED5
:1007C000455A00EE041A02EE053A80ED011A80ED5A
:1007D000023A704770000020F8B5044600200D462C
:1007E000009094F85800012801D1022385E10120EE
:1007F00084F858002068816811F0040F26D1D5E9EB
:1008000000121F2702F01F03C2F3012200EB820235
:100810009F40166BC1F38461994026EA070739436C
:10082000116381688268D20842EA9101C90740F0E9
:100830009880AA682968B2F1004F0DD1002202F019
:10084000E8FE2068416941F000410BE0E06D0123C2
:1008500040F02000E0654DE102F0DBFE20684169D8
:1008600021F000414161D5E90412C36804294DD14A
:10087000016E036E2A68A349C2F3846792FAA2F656
:100880000A4218BFB6FA86F7C3F38463BB4204D1A9
:10089000026E22F0004202662A68436E92FAA2F7C4
:1008A0000A42C2F3846318BFB7FA87F3476EC7F3EF
:1008B00084679F4204D1426E22F0004242662A6859
:1008C000836E92FAA2F70A42C2F3846318BFB7FAA2
:1008D00087F3876EC7F384679F4204D1826E22F04C
:1008E000004282662A68C36E92FAA2F70A42C2F3F5
:1008F000846318BFB7FA87F3C16EC1F3846199426C
:1009000002BFC16E21F00041C1662AE000F160061D
:10091000D5F800C07A4F56F821E00EEA070E0627F8
:1009200007EA93039A400CF0F8431A4342EA0E0296
:1009300042F0004246F821202969AA6956F8213080
:1009400023F080731A4346F821202A69297F56F83C
:100950002230012923F0007308BF43F0007346F8EA
:100960002230816811F0010F62D12968654EEB6871
:10097000D0F8B070CA4362EA0602174003F01802CA
:10098000D6400A466FF3DF42164037435E4EC0F84A
:10099000B070B3424CD191FAA1F3002A4FEA9167AB
:1009A000B3FA83F6334608BF8B0E013303F01E0300
:1009B000092B0AD8A2B1711C4FF0F84202EA8163F8
:1009C00001F01F020121914015E0D2B1711C4FF0DE
:1009D000F84202EA816301F01F02012191401BE00D
:1009E0007A1C01F0F841012301F1806102F01F023D
:1009F000934001F0F841194302EB420241EA0251EF
:100A000013E07A1C01F0F841012301F1806102F04A
:100A10001F02934001F0F84119433C4B02EB4202A4
:100A200003EB0252114341F00071AA6802F0F1FD9C
:100A30002868374908425CD0BD4B2568354F03F51F
:100A400000719D429E460A4618BF03F5C062B5F18B
:100A5000A04F134608BF0B46B8429E6806F0E07CE4
:100A600002D02D4FB84220D1300242D4B5F1A04F70
:100A700003D0D74885423CD11146886820F0E07009
:100A800040EA0C0040F400008860A648A6490068CF
:100A9000B0FBF1F000EB4000800001E0009801386D
:100AA000009000980028F9D123E01C4FB84208BFFD
:100AB00016F0807715D01A4F0023B84208BF16F4FD
:100AC000800017D1B5F1A04F02D0754511D0114665
:100AD000886820F0E07040EA0C0040F480008860F4
:100AE00007E0986820F0E07040EA0C0040F0807069
:100AF00098600023002084F85800D8B201B0F0BDFF
:100B000000F0FF03FFFF070000007F40000020FE11
:100B100000000880000021C31000C090000052C7F0
:100B2000000084CB7047704770470000BCB5044696
:100B30000020002C019037D0E06D30B9204600F045
:100B4000FDF8002084F8580020662168886810F0BD
:100B5000005F03D08868724A10408860886810F08F
:100B6000805F13D16E4A886802F1805210406E4A4D
:100B700040F0805088606B480068B0FBF2F001E004
:100B800001980138019001980028F9D1886810F087
:100B9000805F0BD1E06D40F01000E065206E40F00A
:100BA00001002066012002E00120B6E000208A68F2
:100BB000C2F38002E36D03F010031A43E26D03D029
:100BC00042F010010120A7E022F4817242F00202FB
:100BD000E2658A6812F0010F26D1C04B41F48072A1
:100BE000524D9A4203D12B68D5F8002106E0D5F882
:100BF0000024D5F800351A43D5F800361A43D20739
:100C000012D105F1F80205F53E7391421A4618BF5C
:100C100005F5DF62B1F1A04F08BF1A466368956819
:100C200025F47C152B439360627FE36B43EA4232E9
:100C3000D4E902352A431A4394F8243042EA0342A5
:100C4000012B04D1A36A3B4D05EB43431A43E36AEE
:100C500023B103F478731A43236B1A43CB68364DE0
:100C60002B401A43CA600A69636B22F040621A4340
:100C70000A618A688B68DB0843EA9202D2073DD199
:100C800094F8383094F81CC0CD6844F202025B003E
:100C900025EA020243EA8C331A43CA6022690B69CF
:100CA0004AB143F4803343F6FF750B61D1F8C0308D
:100CB000AB431A4307E023F4803243F6FF730A6123
:100CC000D1F8C0209A43C1F8C02094F840300A6996
:100CD000012B10D140F2FD7322EA030CD4E9113547
:100CE000D4E9132E43EA0C032B431A4342EA0E02C3
:100CF00042F0010201E022F001020A6163690A6B1D
:100D000022F00F02012B02BF236A013B1A430A6340
:100D10000122E16D62F30101E16502B0B0BD00BFE7
:100D2000C0FFFF5F0C000020400D030008000050D2
:100D3000000100500000FEFF0740F0FF70B586B0D4
:100D4000044601A81421FFF72EFB206820498842A1
:100D50003BD120480026016841F4804101600168D0
:100D600001F4804100910099016841F001010160A6
:100D700001A9006800F00100009000980320029093
:100D80004FF4407001904FF09040039600F01AFA33
:100D9000114D1249272080224FF480734FF4806C4C
:100DA0004FF0200EC5E9001005F11000C5E90266FC
:100DB00080E80C504FF400502862284600F04CF9AF
:100DC00008B1FFF7E9FC6565AC6206B070BD00BF15
:100DD000000600504C100240FC00002008000240B9
:100DE0002DE9F0413D4F0E4601680446904607F557
:100DF0000070B942024618BF07F5C062B1F1A04FBA
:100E000008BF02469068896811F0040F03D194F876
:100E10005810012902D10220BDE8F08100F01F0521
:100E20000120092D84F858001DD8A84040F2212146
:100E3000084218D02046FFF7F7FB20B1002184F8C4
:100E40005810BDE8F0812168E06D40F601729043D2
:100E5000B94240F48070E0650BD0214881420DD149
:100E600007F5407007E0002084F858000120BDE835
:100E7000F0814FF0A0400DB1884203D1E06D20F425
:100E80008010E065E06D174B174F184D002210F4ED
:100E9000805F4FF000001CBF206E20F0060020662F
:100EA000606DC0E90B731C2345630B6084F8582008
:100EB00043464A6842F010024A60CA6842F00102A2
:100EC000CA604031324600F027F92168084B8A6831
:100ED0001A4042F004028A60BDE8F081000100502F
:100EE00000050050BB05000841050008A5050008E5
:100EF000C0FFFF7F10B5044690F85800012804BFDA
:100F0000022010BD0120032184F858002046FFF77D
:100F1000AFFA58B92046FFF753FB38B9E06D41F2FC
:100F20000111884340F00100E0650020002184F8B1
:100F3000581010BD90F8251002292ED101680A68BA
:100F400022F00E020A600A6822F001020A60816C37
:100F50000A6822F480720A60D0E9101202F01F03BE
:100F6000012202FA03F34B60D0E913134B60416D89
:100F700031B10B6823F480730B60D0E916134B601A
:100F8000002180F8241080F82520826B6AB180B59A
:100F900090470021BDE8804007E00421C1630021A3
:100FA00080F82410012180F8251008467047B0B55C
:100FB000D0E910C4DCF80010026804F01F0E1368BA
:100FC00013F0040F1EBF042404FA0EF414EA010502
:100FD00019D19C0723D5022404FA0EF414EA010562
:100FE0001DD0116811F0200F06D1116821F00A01FF
:100FF0001160012180F825100021CCF8044080F810
:101000002410C16A23E0116811F0200F02BF11689B
:1010100021F004011160CCF80440016B17E01B07BC
:1010200019D5082303FA0EF3194008BFB0BD1168A3
:1010300021F00E011160012101FA0EF2CCF804201A
:101040000022C16380F8242080F82510416B11B183
:10105000BDE8B0400847B0BDF8B50446002848D008
:1010600002202B49142304F1180784F82500206876
:1010700001F108029042274A38BFA1F5806138BFCC
:1010800002F580620244B2FBF3F29200C4E910124E
:1010900047F6F072016821EA020CD4E90223D4E990
:1010A000041EE0CF42EA0C021A43114341EA0E014A
:1010B00029433143394301602046FFF713FBA06801
:1010C000B0F5804F06BF002060606068A16CC2B2BE
:1010D00001380A600328D4E913124A600BD820466D
:1010E000FFF724FB606D00210160D4E91601416027
:1010F00005E001200AE00020C4E91500E0650020B9
:101100000121E06384F8240084F8251001B0F0BDCB
:1011100000040240F8FBFDBF10B5044690F824001F
:10112000012820D0012084F8240094F8250001280B
:1011300016D1022084F825000020E063D4F800C016
:10114000DCF8000020F00100CCF800002046FFF79A
:10115000FFFA2068226B01683AB141F00E010AE003
:10116000002084F8240002201AE021F0040101602C
:10117000016841F00A010160A16C0A6812F4803F25
:101180001EBF0A6842F480720A60616D19B10A6874
:1011900042F480720A60016841F0010101600020A0
:1011A000C0B210BDB0B5044600F0D4F805466B4897
:1011B000611C406818BF044400F0CCF8401BA042FA
:1011C000FAD3B0BD2DE9FC4F5C4A06274FF0000A68
:1011D0004FF001094FF003080026904200F1384219
:1011E0004FEAB22308BF0527052B38BF4FEAB227C5
:1011F000002200970D6835FA06F408BFBDE8FC8FA1
:1012000009FA06F415EA040B00F092804D68122DDD
:1012100015D809FA05F313F0061F10D0876808FAED
:1012200002F327EA0303CF6897403B438360C5F38B
:1012300000134768B34027EA040423434360C468AB
:101240008F6808FA02F36FEA030E9C43974045F05B
:1012500010033C43122BC46012D13C4C0AF01C0317
:101260000F2707FA03F504EA56070744D7F820C00A
:101270000C692CEA050504FA03F32B433B624D6825
:10128000076805F0030315F0805F03FA02F307EA2D
:101290000E0743EA070303604AD02B4B284C0AF0A1
:1012A0000C051F461B68A44643F001033B603B68E6
:1012B00003F00103019326F003032344244C019F10
:1012C000A6461F590F24AC40A743009C04FA05F51D
:1012D0002F4343F80E70DCF800304D6843EA0B07EB
:1012E00015F4803F08BF23EA0B0715F4003FCCF844
:1012F0000070DCF8043043EA0B0708BF23EA0B0751
:1013000015F4801FCCF80470DCF8083043EA0B07B2
:1013100008BF23EA0B070B4B15F4001FCCF808702D
:101320001C461B6843EA0B0708BF23EA0B0727602C
:101330000AF1040A023201365CE700BF00140048DB
:10134000000401400C04014060100240FCFFFF7FDC
:1013500008FCFFFF01488068704700BF00000020C4
:1013600070477047704770477047704770477047C5
:10137000704790F8DC300222012B21D080F8DD206C
:1013800001224B1C80F8DC200268D2F8CCC309D0C3
:101390004CF00203C2F8CC33D2F8CC3323F00C0368
:1013A000194301E02CF00201C2F8CC13D2F8CC139F
:1013B00041F00101C2F8CC130121002280F8DD10B8
:1013C000D0B2704790F8DD30022B01D102233FE00C
:1013D00090F8DCC00223BCF1010F39D0B0B580F821
:1013E000DD301C4C536904EA034CD2E90043D2E9D6
:1013F00002E504F4E0546FF35F2305F40045234352
:101400000EF400742343146904F480442343124C03
:101410002B43956943EA0C0305F000752B43156ACD
:10142000D26905F0804502F000422B431A4303685D
:1014300003EBC111D1F8B83023401A430023C1F89F
:10144000B820012180F8DC3080F8DD10BDE8B04024
:10145000D8B270470000FF010020003C7047704781
:1014600070477047704770477047B0B50D460446E7
:1014700006297DD0FF2D40F011812068D0F8881317
:1014800011F0010F0BD0D0F8901311F0010F06D01E
:101490000121C0F88C132046FFF7E1FF2068D0F847
:1014A000881311F0020F0BD0D0F8901311F0020F37
:1014B00006D00221C0F88C132046FFF7D1FF206828
:1014C000D0F8881311F0040F0BD0D0F8901311F05E
:1014D000040F06D00421C0F88C132046FFF7C1FF8B
:1014E0002068D0F8881311F0080F0BD0D0F89013B3
:1014F00011F0080F06D00821C0F88C132046FFF722
:10150000B1FF2068D0F8881311F0100F0BD0D0F87D
:10151000901311F0100F06D01021C0F88C13204644
:10152000FFF7A1FF2068D0F8881311F0400F0BD00F
:10153000D0F8901311F0400F06D04021C0F88C1362
:101540002046FFF791FF2068D0F8881311F0200F94
:1015500000F0BC81D0F8901311F0200F00F0B6819C
:101560002021C0F88C132046BDE8B04000F078BAC6
:101570002068D0F8881311F4803F12D0D0F890136F
:1015800011F4803F0DD04FF48031C0F88C1300204F
:1015900084F8DC00012084F8DD002046FFF7E8FE37
:1015A0002068D0F8881311F4003F0CD0D0F89013C5
:1015B00011F4003F07D04FF40031C0F88C132046DF
:1015C000FFF7CEFE2068416811F0010F0AD0C16814
:1015D00011F0010F06D00121816020460621FFF79E
:1015E000C2FE2068416811F0020F0AD0C16811F0F4
:1015F000020F06D00221816020460621FFF7B4FECB
:101600002068416811F0040F0AD0C16811F0040F7E
:1016100006D00421816020460621FFF7A6FE20683F
:10162000416811F0080F0AD0C16811F0080F06D008
:101630000821816020460621FFF798FE2068416856
:1016400011F0100F0AD0C16811F0100F06D0102150
:1016500081602046062100F001FA2068416811F0FF
:10166000200F09D0C16811F0200F05D02021816022
:10167000204600F0F4F92068416811F0400F00F0B6
:101680002581C16811F0400F00F020814021816068
:1016900020460621BDE8B04000F0DFB9206800EB2D
:1016A000C511D1F8842012F0010F0CD0D1F88C2094
:1016B00012F0010F07D00120C1F88800204629460A
:1016C000FFF751FE206800EBC511D1F8842012F01D
:1016D000020F0CD0D1F88C2012F0020F07D002209C
:1016E000C1F8880020462946FFF73EFE206800EB3F
:1016F000C511D1F8842012F0040F0CD0D1F88C2041
:1017000012F0040F07D00420C1F8880020462946B3
:10171000FFF72BFE206800EBC511D1F8842012F0F2
:10172000080F0CD0D1F88C2012F0080F07D0082039
:10173000C1F8880020462946FFF718FE206800EB14
:10174000C511D1F8842012F0100F0CD0D1F88C20E4
:1017500012F0100F07D01020C1F88800204629464B
:1017600000F07CF9206800EBC511D1F8842012F05C
:10177000400F0CD0D1F88C2012F0400F07D0402041
:10178000C1F888002046294600F067F9206800EB80
:10179000C511D1F8842012F0800F0CD0D1F88C2024
:1017A00012F0800F07D08020C1F88800204629461B
:1017B000FFF7D7FD206800EBC511D1F8842012F4A3
:1017C000807F0DD0D1F88C2012F4807F08D04FF4A8
:1017D0008070C1F8880020462946FFF7C3FD2068C5
:1017E00000EBC511D1F8842012F4007F0DD0D1F8A0
:1017F0008C2012F4007F08D04FF40070C1F88800EC
:101800002046294600F003F9206800EBC511D1F805
:10181000842012F4806F0DD0D1F88C2012F4806FE8
:1018200008D04FF48060C1F888002046294600F0B7
:10183000EDF8206800EBC511D1F8842012F4006F98
:101840000DD0D1F88C2012F4006F08D04FF4006056
:10185000C1F888002046294600F0DBF8206800EB3C
:10186000C511D1F8842012F4805F0DD0D1F88C20FE
:1018700012F4805F08D04FF48050C1F888002046F1
:10188000294600F0C5F8206800EBC511D1F8842086
:1018900012F4005F0DD0D1F88C2012F4005F08D054
:1018A0004FF40050C1F8880020462946FFF75FFD3D
:1018B000206800EBC510D0F8841011F4804F08BFE9
:1018C000B0BDD0F88C1011F4804F00D1B0BD4FF4F2
:1018D0008041C0F8881020462946BDE8B040FFF797
:1018E000BDBD00007CB50446002844D002201C2168
:1018F00084F8DD0004F1E000FEF755FD207AC00712
:1019000019D020683E49884209D129490A6842F025
:1019100080620A60096801F08061019101990168A3
:10192000D4E9042321F4704102F44042114303F44A
:10193000405211430160204600F020F8207A8007D1
:1019400006D520680168E268120A62F30921016085
:1019500000250026012084F8DC5084F8DD0006E034
:10196000A019142105631830FEF71DFD1C36C42E86
:10197000F6D1002000E0012002B070BD00682049CF
:10198000884218BF7047E0B509480022016841F05D
:10199000806101600021006800F080600190019882
:1019A000462000F059FB4620BDE88C4000F046BBC5
:1019B0006010024010B586B0044601A81421FEF75D
:1019C000F2FC20680E49884218D10E48016841F0A7
:1019D0000201016001A9006800F002000090009877
:1019E000022002904FF44050019000200390032009
:1019F00004900D2005900448FFF7E4FB06B010BDED
:101A0000006801404C1002400004004870477047D5
:101A100070477047F8B50D460446FFF79BFC064635
:101A20006F1C2068D0F8880310F4803F0CD1002F81
:101A3000F7D0FFF78FFC15B1801BA842F1D9072022
:101A400084F8DD00032005E00020012184F8DC009B
:101A500084F8DD10C0B201B0F0BD70477047704728
:101A6000704790F8DDC00223BCF1020F32D080B580
:101A700080F8DD300629036810D1196821F01F0CA9
:101A8000D2E9021E21F0180141EA0C0141EA0E01DF
:101A90001960116859615168996115E003EBC11132
:101AA000D1F8803023F01F0CD2E9023E23F0180356
:101AB00043EA0C0343EA0E03C1F880301368C1F80F
:101AC00094305268C1F898200121002380F8DD107D
:101AD000BDE88040D8B2704780B590F8DDC0BCF159
:101AE000020F02D14FF0020C8DE090F8DCE04FF0D5
:101AF000020CBEF1010F00F0868080F8DDC04FF0CF
:101B0000010C062980F8DCC00CD1511E07291BD816
:101B1000DFE801F004211A251A1A1A2901681A6847
:101B2000CA6162E0A2F1010CBCF1070F0CD8DFE83A
:101B30000CF0041E0B330B0B0B3A026802EBC111C5
:101B40001A68C1F89C2050E0002180F8DC100721C1
:101B500080F8DD1049E001681A684A6245E00168D2
:101B60001A688A6241E001681A68CA623DE0026848
:101B700002EBC11C1968CCF8A4106146D3F804E04C
:101B800051F8802F22F44052BEF1000F0A602CD091
:101B90000A6842EA0E021AE0026802EBC1111A68F2
:101BA000C1F8A82021E0026802EBC11C1968CCF83A
:101BB000AC106146D3F804E051F8802F22F4404283
:101BC000BEF1000F0A6010D00A6842EA8E02BEF52C
:101BD000405F0A6006D0BEF5005F04BF9968CCF88C
:101BE0009C1002E09968CCF8A81090F8DD10072945
:101BF00002D14FF0010C06E04FF0000C012180F8FB
:101C0000DCC080F8DD105FFA8CF080BD90F8DC302D
:101C10000222012B0BD080F8DD20026813681943E3
:101C200011600022012180F8DC2080F8DD10D0B2A4
:101C30007047B0B5044690F8DD00022801D10220BB
:101C400012E094F8DCC00220BCF1010F0CD084F843
:101C5000DD000125204684F8DC5001F065FC002001
:101C600084F8DC0084F8DD50C0B2B0BD90F8DC3000
:101C70000222012B0DD080F8DD200268D2F89433C7
:101C80001943C2F894130022012180F8DC2080F867
:101C9000DD10D0B2704700002DE9F04F87B0044648
:101CA00090F8DD00022801D1022015E194F8DC3023
:101CB0000220012B00F0108184F8DD0001200629AC
:101CC00084F8DC008648D4F800A03BD1DAF8006044
:101CD000DAF8A0C3556926F0E00625F0C007202DEC
:101CE00046EA070606D09569042D58D0032D59D031
:101CF000022D5AD146F0200600F14057824802F1E9
:101D0000240E3740D2E907659EE80848D2E90C89DD
:101D1000304025F06E4523F068433843284318438C
:101D20002BF06043184340EA8E0020F0005040EA58
:101D30000900CAF800002CF4803040EA0800CAF814
:101D4000A003B2E00AEBC1178046BC463B465CF8F4
:101D5000800F20F07040CCF80000DCF8000053F851
:101D6000E85F0097069303953B4653F8E45F0295BE
:101D7000059320F02005DAF8A003576947EA050625
:101D8000202F049006D09569042D11D0032D11D079
:101D9000022D13D126F4D07545F0200610E046F050
:101DA0008006A9E746F04006A6E726F0E006A3E78E
:101DB000022500E0012565F3C81601E026F4D0767F
:101DC000434606EA0805D2E90767D2E9090803F5A0
:101DD0000063334020F078402B4327F07E452B43AF
:101DE000184328F070431843D36A40EA030623B926
:101DF000D06D26F4007343EA402602F1340B3948D3
:101E00009BE8800B06EA000386463748B7F1005F7F
:101E100008BF46F400330EF5003608EA000500F569
:101E200080203340966C2B43956D28401843136DEA
:101E30001843536C0190029820F48075039843EA8C
:101E400005072A4B09F03F0503402B4343EA0B09E2
:101E500046F48053B3F5F05F02D1B8F1400F03D1DF
:101E600027F4F05343EA0607D36C27F48046556DF8
:101E7000052946EA03070AD81DA30498166B53F8F0
:101E800021300340481C06FA00F0034300E0049BA5
:101E90000198CCF800000698C0F8009005980760FB
:101EA0000098C0F8D450CAF8A033C1EBC100136841
:101EB00004EB800003625368436293688362D368D3
:101EC000C36212690263204601F012FB0020012167
:101ED00084F8DC0084F8DD10C0B207B0BDE8F08FF4
:101EE000FFF3FF01BFFF00FEFFFF02FEC0FFFF7F09
:101EF000FFFFFDFFFFFFFBFFFFFFF7FFFFFFEFFF10
:101F0000FFFFDFFFFFFFBFFFFFFBFF312DE9F041C8
:101F1000044690F8DD00022801D1022038E094F850
:101F2000DC300220012B33D04FF0010884F8DD00B3
:101F3000194E84F8DC80206800EBC11050F8EC3FAB
:101F400092E8A01003EA060E0136D36827F4403762
:101F500006EA051545EA0E0623F4003337433B43F2
:101F6000976943EA0C03012F09D1D2E9047223F0E7
:101F7000070327F003073B431A4342F001030360C2
:101F8000204601F0B5FA002084F8DC0084F8DD80FA
:101F9000C0B2BDE8F08100BFEFFFECFF1948416817
:101FA000826811448160704780B5032000F076F8A4
:101FB000002000F007F808B1012080BD00F024F8EF
:101FC000002080BD70B50F4E04467068B0B14FF46C
:101FD0007A71B1FBF0F063490968B1FBF0F000F0F1
:101FE000BFFD01250F2C0AD848B94FF0FF3021461C
:101FF0000022002500F030F8346000E0012528467A
:1020000070BD00BF0000002082B00B48816841F025
:1020100001018160816801F001010191019901686C
:1020200041F080510160006800F0805000900098FD
:1020300002B000F09BB800BF58100240002808DB37
:1020400000F01F010122400902FA01F1014A42F8A1
:102050002010704700E100E010B5164B1B68C3F379
:10206000022E0EF1040CAEF103048EF00703BCF156
:10207000070F4FF0010C38BF0024042B28BF0423A6
:102080000CFA03F3013B19400CFA04F3013BA140A5
:102090001A401143BDE8104002F048B805494FF618
:1020A000FF030A681A4060F30A22034810430860DD
:1020B000704700BF0CED00E00000FA0520B3D649E0
:1020C000B0F5007F0A6845D1D1F8800040F48070F7
:1020D000C1F8800002F4C060B0F5806F3ED108689E
:1020E000012262F34A20322208601E4800685043F1
:1020F0001D4AB0FBF2F0C0434A6918B1013012F436
:102100008062F9D1486920E0C3480168D0F8802096
:1021100001F4C06122F48072B1F5806FC0F88020B4
:102120001CD10168012262F34A21322201600D496B
:10213000096851430C4AB1FBF2F1C943426919B134
:10214000013112F48062F9D1406910F4806F05D03A
:10215000032004E0022060F34A220A600020C0B29B
:10216000704700BF0C00002040420F000248016889
:1021700041F4804101607047087000402DE9FC4146
:1021800004468078A34E000701D4002060E0F06C84
:1021900010F0805F0BD1F06C4FF0010840F08050E0
:1021A000F064F06C00F080500190019801E04FF075
:1021B0000008994F386840F480703860FFF7CAF81B
:1021C0000546386810F4807F06D1FFF7C3F8401B3E
:1021D0000228F6D9032034E0D6F8840010F44070C9
:1021E00026D0216D884211D0D6F88400D6F884100C
:1021F00041F4803120F44070C6F88410D6F8841081
:1022000021F48031C6F88410C6F88400C0070FD0CE
:10221000FFF7A0F8054641F28837D6F8840010F0A1
:10222000020F05D1FFF796F8401BB842F5D9D1E768
:10223000D6F88400216D20F440700843C6F884006D
:102240000020B8F1000F1EBFF16C21F08051F16445
:10225000216811F0010F05D0F26F636822F00302CC
:102260001A43F2678A0705D5F26FA36822F00C02C1
:102270001A43F2674A0705D5F26FE36822F030028D
:102280001A43F2670A0705D5F26F236922F0C002EC
:102290001A43F267CA0605D5F26F636922F44072E9
:1022A0001A43F2678A0605D5F26FA36922F44062E9
:1022B0001A43F2674A0605D5F26FE36922F44052E9
:1022C0001A43F2670A0605D5F26F236A22F44042E8
:1022D0001A43F267CA0505D5F26F636A22F44032E9
:1022E0001A43F2678A0307D5D6F89020A36A22F032
:1022F00003021A43C6F890208A0505D5F26FE36AF7
:1023000022F440221A43F2674A050DD5F26F236B7F
:1023100022F44012B3F5801F42EA0302F26702BFC3
:10232000326842F4801232600A050DD5F26F636B99
:1023300022F44002B3F5800F42EA0302F26702BFC3
:10234000326842F480123260CA040DD5F26FA36B7A
:1023500022F04072B3F1807F42EA0302F26702BFCB
:10236000326842F4801232608A040DD5F26FE36B5A
:1023700022F04062B3F1006F42EA0302F26702BF4B
:10238000326842F4801232604A040DD5F26F236C39
:1023900022F04062B3F1006F42EA0302F26702BF2B
:1023A000326842F4801232600A040DD5F26F636C19
:1023B00022F04052B3F1805F42EA0302F26702BFAB
:1023C000326842F480323260CA030DD5F26FA36CDA
:1023D00022F04042B3F1804F42EA0302F26702BFAB
:1023E000326842F48032326049030FD5D6F890103B
:1023F000E26C21F44011B2F5001F41EA0201C6F877
:10240000901002BF316841F480113160C0B202B057
:10241000BDE8F0810C100240007000402DE9F0474B
:102420008A468146002854D0754C4FF4805021587C
:1024300001F00F0151450AD2215821F00F0141EA64
:102440000A012150205800F00F00504541D1D9F821
:10245000000010F0010F02D14FF000086BE0D9F836
:102460000410032930D1216811F0007F31D0E168D8
:10247000E268E368E7680226C7F3416701F00301F9
:1024800006EB47072646894C032904BF41F2002486
:10249000C0F27A04C2F30311C3F306220131B4FB84
:1024A000F1F15143574AB1FBF7F1914224D9B16898
:1024B000344611F0F00F17D0800702D5D9F8080084
:1024C00090B14FF000081AE02068022905D180037E
:1024D00005D40120C0B2BDE8F0874005F9D500F071
:1024E000B3F848498842ECD9A06808214FF0800829
:1024F00061F30710A06002E04FF000083446A068C6
:10250000D9F8041020F003000843A060FEF722FF72
:10251000064641F28837A068D9F8041000F00C0094
:10252000B0EB810F05D0FEF715FF801BB842F2D942
:102530003CE0D9F80000810706D4B8F1800F17D12C
:10254000A16821F0F00112E0410742BFA16841F407
:10255000E061A160010704D5A168072262F30D21A3
:10256000A160A168D9F8082021F0F0011143A16011
:102570004FF48057E15901F00F0151451BD9E05943
:10258000254620F00F0040EA0A00E051FEF7E2FE87
:10259000064641F288342846E85900F00F005045BD
:1025A00006D0FEF7D7FE801BA042F4D9032091E7A6
:1025B000D9F800002C46410706D5A168D9F80C20AF
:1025C00021F4E0611143A160000707D5A068D9F8A4
:1025D000101020F4605040EAC100A06000F034F810
:1025E000A168094AC1F30311515C01F01F01C84001
:1025F0001349086005480068BDE8F047FFF7E2BCF2
:102600000010024000B4C4043C4600080000002052
:102610000B4825490B4A00680968C1F30221515C47
:1026200001F01F01C840704705481F49054A00686E
:102630000968C1F3C221515C01F01F01C840704715
:102640000C0000204C4600081749184A086800F0A2
:102650000C000428104608BF7047086800F00C03FF
:102660001348082B1ED00B6803F00C030C2B1CBF67
:10267000002070474B6803F00303032B08BF02469A
:102680004868C0F303100130B2FBF0F04A68C2F3AF
:102690000622496850430222C1F3416102EB410125
:1026A000B0FBF1F0704700BF081002400024F400B6
:1026B00000127A002DE9F8430446002800F0D38187
:1026C0002078C94EC94FC007B1461FD12078800776
:1026D0004FD42078000740F1A6806169D7F89000B8
:1026E000002900F08E8040F00100C7F89000FEF74E
:1026F00031FE0546D7F8900010F0020F40F09380AD
:10270000FEF728FE401B0228F4D9DEE07968B8689D
:1027100001F00C01082953D0032281F00C0122EAB8
:1027200000000843B0FA80F0400949D16668B6F568
:10273000803F0AD0D9F80000C846B6F5A02F40F077
:10274000E28040F48020C8F80000D9F800004E462E
:1027500040F48030C9F80000FEF7FCFD0546306803
:1027600010F4003FB2D1FEF7F5FD401B6428F6D906
:10277000ABE07868B96800F00C0004282AD001F0BA
:10278000030180F00C0081F002010843B0FA80F0F0
:1027900040091FD1E1683068002900F0988040F4BA
:1027A00080703060FEF7D6FD0546306810F4806F0B
:1027B00040F0A180FEF7CEFD401B0228F5D984E051
:1027C000306810F4003F3FF481AF606800287FF468
:1027D0007DAF48E1306810F4806F03D0E0680028D6
:1027E00000F041813868216920F0FE4040EA016034
:1027F0003860D6480068FFF7E5FB002840F03381D9
:1028000067E720F00100C7F89000FEF7A3FD05463A
:10281000D7F8900010F0020F05D0FEF79BFD401B8B
:102820000228F5D951E02078400740F1AF80786D5B
:1028300010F0805F0BD1786D4FF0010840F08050B0
:102840007865786D00F080500090009801E04FF0BE
:102850000008BF4E484659F8060010F4807F14D196
:1028600059F8060040F4807049F80600FEF772FD42
:102870000546484659F8060010F4807F05D1FEF75A
:1028800069FD401B0228F4D91FE0A668012E07D07D
:10289000D7F88C00052E55D140F00400C7F88C0005
:1028A000D7F88C0040F00100C7F88C00FEF752FD0D
:1028B000054641F28836D7F88C0010F0020F5ED141
:1028C000FEF748FD401BB042F5D90320CCE020F4D0
:1028D00080703060FEF73EFD05464846D9F800009E
:1028E00010F4806F3FF4F5AEFEF734FD411B03207A
:1028F0000229F2D9B8E03868216920F0FE4040EAA8
:1029000001603860E5E620F48030C8F80000D8F8AF
:10291000000020F48020C8F80000FEF71BFD002E08
:10292000054646467FF41BAFD9F800004E4610F42A
:10293000003F3FF4CBAEFEF70DFD411B03206429A1
:10294000F2D991E020F00100C7F88C00D7F88C0094
:1029500020F00400C7F88C00FEF7FCFC0546002EB2
:10296000A7D141F28836D7F88C0010F0020F06D0BC
:10297000FEF7F0FC411B0320B142F4D974E0B8F13A
:10298000000F1EBF786D20F080507865207880069B
:102990002ED5A169D7F8940091B140F00100C7F895
:1029A0009400FEF7D7FC0546D7F8940010F0020F0C
:1029B0001ED1FEF7CFFC411B03200229F4D953E0BE
:1029C00020F00100C7F89400FEF7C4FC0546D7F8D4
:1029D000940010F0020F0BD0FEF7BCFC411B03204B
:1029E0000229F4D940E000BF001002400410024068
:1029F000E069002800F0A780796801F00C010C293B
:102A000036D101282FD0B868216A00F003028A422B
:102A100029D1616A6FF00F0202EB011100F0F002A0
:102A20008A4220D1A16A00F4FE42B2EB012F1AD1F2
:102A3000E16A00F07842B2EBC16F14D1216B474AD2
:102A400002EA015100F4C002A1F500118A420AD144
:102A5000616B4FF07E4200F0C06001F0FE0102EBBE
:102A6000016188426FD00120C0B201B0BDE8F0839F
:102A7000D9F8001002284A4621F08071C9F80010E8
:102A80000FD1FEF767FC05464846D9F8000010F064
:102A9000007F1ED0FEF75EFC411B03200229F3D904
:102AA000E2E7B8682B4920F00300B860B868084036
:102AB000B860FEF74FFC04464846D9F8000010F015
:102AC000007F40D0FEF746FC011B03200229F3D90A
:102AD000CAE704F12006B8686FF00F054ECE05EB8B
:102AE00002121D4D28400843216B10431B4A40EA47
:102AF000032002EA01514FF07E42A1F50011084384
:102B0000616B40EAC66001F0FE0102EB016108431F
:102B1000B860D9F8000040F08070C9F80000B868CB
:102B200040F08070B860FEF715FC04464846D9F8BE
:102B3000000010F0007F06D1FEF70CFC011B032003
:102B40000229F3D990E700208EE700BF00000020A3
:102B50000060FEFFFFFFEEFE0C809F010000E0FF23
:102B6000411E0020B0EB116F1CBF01207047044ACA
:102B7000F023516003490B7007219060116070478A
:102B800010E000E023ED00E0704770477047000060
:102B900090F83C20012A01D102215AE0F0B501222F
:102BA0002D4D80F83C20D1E900C3D1E902422B40F1
:102BB00024F4705522F47C527C4C2A431A432CF4A2
:102BC00077231A430B6923F476231A434B691A437C
:102BD0000B6B22F4742223F470231A438B6942EAAC
:102BE00003430268A24205D0434DAA4202D0434D9E
:102BF000AA4203D1CD6923F080532B43A24205D0D2
:102C00003D4DAA4202D03D4DAA421CD1A4460D6AB8
:102C1000D1E90946114F23F07C73624507EA065754
:102C200043EA070325F0007743EA070343EA040376
:102C300005D0314CA24202D0304CA24203D1C96A25
:102C400023F000530B430021536480F83C10BDE88F
:102C5000F040C8B2704700BFFF87F0FF0000F0FCF3
:102C6000704770477047000090F83C300222012BFB
:102C700040D070B580F83D2001224C4D80F83C20BA
:102C8000026854689368AA4205D01B4EB24202D033
:102C90001A4EB24203D14E6824F470043443184EE5
:102CA000B2F1804F06EA04060C6846EA0406566054
:102CB00013D0144CA24210D0134CA2420DD0134C8E
:102CC000A2420AD0AA4208D00C4CA24205D00A4C1B
:102CD000A24202D00E4CA24204D1896823F08003A4
:102CE000194391600022012180F83C2080F83D10BA
:102CF000BDE87040D0B27047005001400034014040
:102D00008FFFFFFD0004004000080040000C004061
:102D100000400140704710B5044650B394F83D00A0
:102D200028B9002084F83C00204600F025F8022055
:102D3000211D84F83D00206800F0D0FE012084F8B9
:102D4000480084F83E0084F83F0084F8400084F88E
:102D5000410084F8420084F8430084F8440084F879
:102D6000450084F8460084F8470084F83D000020C0
:102D700010BD012010BD000000680C49884218BF3A
:102D80007047E0B50A480022016841F40061016023
:102D90000021006800F40060019001981920FFF7FD
:102DA0005BF91920BDE88C40FFF748B9002C0140C1
:102DB00060100240B0B590F83C2004460220012A81
:102DC00020D084F83D000120434D84F83C00206869
:102DD000024652F8083F2B4013600B682BB1102BB2
:102DE00003D0202B18BF302B0ED11068414908406A
:102DF000184340F0070010600020012184F83C00D7
:102E000084F83D10C0B2B0BD402B2FD0502B3AD02B
:102E1000602B45D031488342E7D0B3F5005F4CD0FA
:102E2000B3F5801FE1D0B3F1101FDED02C488342F0
:102E3000DBD02C488342D8D02B488342D5D02B48B6
:102E40008342D2D02A488342CFD0702BD4D1D1E94B
:102E50000103C968184340EA0120116821F47F4149
:102E600008431060106840F07700C4E74B68CA68F8
:102E7000194600F0ADFE22681E4952F8080F0840BE
:102E800040F04700B7E74B68CA68194600F0A0FE5B
:102E90002268184952F8080F084040F05700AAE786
:102EA0004B68CA68194600F0A4FE2268114952F81E
:102EB000080F084040F067009DE7D1E90103C968A9
:102EC000184340EA0120116821F47F410843106053
:102ED000106840F480408EE78800CEFF700010003C
:102EE00020001000300010004000100050001000C2
:102EF0006000100088FFCFFF7047000010B5044647
:102F00000068016911F0020F19D0C16811F0020FB9
:102F100015D06FF00201016101212177806910F065
:102F2000030F03D02046FFF7E7FF05E0204600F03F
:102F3000EFF8204600F0EDF80020207720680169C6
:102F400011F0040F19D0C16811F0040F15D06FF003
:102F50000401016102212177806910F4407F03D0D0
:102F60002046FFF7C9FF05E0204600F0D1F82046D3
:102F700000F0CFF8002020772068016911F0080FD9
:102F800019D0C16811F0080F15D06FF00801016168
:102F900004212177C06910F0030F03D02046FFF70A
:102FA000ABFF05E0204600F0B3F8204600F0B1F892
:102FB000002020772068016911F0100F19D0C16836
:102FC00011F0100F15D06FF0100101610821217769
:102FD000C06910F4407F03D02046FFF78DFF05E065
:102FE000204600F095F8204600F093F80020207766
:102FF0002068016911F0010F0AD0C16811F0010FBA
:1030000006D06FF001010161204600F083F82068CE
:10301000016911F0800F0AD0C16811F0800F06D04D
:103020006FF0800101612046FFF7AFFD2068016964
:1030300011F4807F09D0C16811F0800F05D02F49AD
:1030400001612046FFF7A0FD2068016911F0400FE3
:103050000AD0C16811F0400F06D06FF04001016145
:10306000204600F058F82068016911F0200F0AD0BE
:10307000C16811F0200F06D06FF0200101612046D9
:10308000FFF784FD2068016911F4801F09D0C16831
:1030900011F4801F05D01A4901612046FFF7E1FDB8
:1030A0002068016911F4001F09D0C16811F4001FE4
:1030B00005D0144901612046FFF7D2FD206801695F
:1030C00011F4800F09D0C16811F4800F05D00E49AA
:1030D00001612046FFF7C6FD2068016911F4000F69
:1030E00008BF10BDC16811F4000F00D110BD074921
:1030F00001612046BDE81040FFF70CBEFFFEFFFF58
:10310000FFFFEFFFFFFFDFFFFFFFBFFFFFFF7FFFBF
:10311000704770477047704790F87C10012901D1C3
:10312000022112E02421C0F880100268136811689F
:1031300021F0010123F0005311600021416613606A
:10314000202280F87C10C0F88020C8B270477047F9
:10315000B0B5044690F87C00012801D102201BE0A4
:103160002420C4F88000012084F87C0020680568D1
:10317000026822F001020260826822F0606211435C
:103180008160204600F046FD206820210560002077
:1031900084F87C00C4F88010C0B2B0BDB0B504465D
:1031A00090F87C00012801D102201BE02420C4F803
:1031B0008000012084F87C0020680568026822F005
:1031C00001020260826822F0604211438160204661
:1031D00000F020FD206820210560002084F87C009C
:1031E000C4F88010C0B2B0BD70477047704700008F
:1031F00070B50368044640F60F02D9691846D3F843
:1032000000C050F808EF114249D06A4A0CEA0205A2
:10321000694A02EA0E0215434BD0CD0718BF1CF4D1
:10322000807507D001251D62D4F8885045F001054E
:10323000C4F888500EF001058E0708D53DB102266E
:103240001E62D4F8886046F00406C4F888604E0711
:1032500008D53DB104251D62D4F8885045F002051B
:10326000C4F888500D070BD50CF020052A4307D071
:1032700008221A62D4F8882042F00802C4F8882094
:103280000A0532D51CF080622FD04FF4006225462B
:103290001A6255F8882F42F020022A6027E088063B
:1032A00007D50CF020000EF08052104301D0E16EE3
:1032B00015E0C8020AD51EF4800007D04FF4801034
:1032C00018622046BDE87040FFF78FBF08063FD563
:1032D0000CF080000EF40002104339D0216F002959
:1032E00053D02046BDE87040084704F188052A689D
:1032F000002A4AD089060BD50CF020010EF080522E
:10330000114305D0E16E19B1204688472068083086
:103310002968006801F0280100F0400008432ED021
:10332000204600F051FD2068816811F0400F21D047
:10333000816821F040018160A06FD8B11F4981638D
:10334000FDF7F8FD08B3A06F816BBDE8704008473A
:1033500001EA0C00400619D5186820F040001860FA
:10336000002020672020C4F880002046BDE870407F
:1033700000F0AEB82046BDE87040FFF737BF2046EA
:10338000FFF734FF0020C4F8880070BD080207D59D
:103390001CF0804004D02046BDE87040FFF724BFF9
:1033A000C801F2D5BCF1FF3FEFDC2046BDE870401C
:1033B000FFF7CDBE2001000401000010A93D000868
:1033C00010B50446A8B1D4F8800028B9002084F8CC
:1033D0007C00204600F026F82420C4F880002068F5
:1033E000016821F001010160204600F0FFFC012886
:1033F00001D1012010BDA06A10B1204600F034FCBC
:103400002068416821F490414160816821F02A01DF
:103410008160016841F0010101602046BDE8104073
:1034200000F08CBC70B586B0044601A81421FCF7EE
:10343000BAFF2068224988423FD1C9480026416925
:1034400041F480414161416901F48041009100995A
:10345000016841F002010160C021006800F0020033
:1034600000900098022002900191CDE903600720AE
:1034700001A905901348FDF7A5FE134D1349192026
:1034800010228023C5E900104FF40050C5E9022640
:10349000C5E90436C5E9066628622846FDF7DCFD65
:1034A00008B1FDF779F92520002100226567AC629B
:1034B000FEF7D2FD2520FEF7C1FD06B070BD00BFAE
:1034C00000380140000400485C0100201C0002405C
:1034D00070470000FC480068D0F8841111F0400FDC
:1034E0001CBF4021C0F88811F7480221FDF7BDBF7D
:1034F000062988BF7047006804A252F82110D0F84E
:1035000084231143C0F88413704700BF02000000F9
:10351000040000000800000010000000200000006F
:1035200040000000010000002DE9F0410068551E38
:10353000072D00EBC1144FF00001A04658F8E4EF4E
:1035400058F82CCC14D9102A18D0202A1ED0402A82
:1035500014D0802A1AD0B2F5807F0FD0B2F5007F48
:1035600014D0B2F5006F11D0B2F5806F06D014E020
:10357000DFE805F0040C13041313130C5968C4F8A6
:10358000BC109968C4F8C010002106E05968C4F85E
:10359000C4109968C4F8C8101021FE221D6803F1F8
:1035A0000C071CF0022F02FA01F2D1CF2EEA020220
:1035B00005FA01F542EA050200FA01F040EA0200CC
:1035C00004FA01F240EA020006FA01F240EA0200BF
:1035D00007FA01F242EA000201BF082CD8698840CC
:1035E0000243C8F80020BDE8F081000010B5B64CD9
:1035F0002068016841F40021016020463021FEF777
:1036000035FB20464FF40021BDE81040FEF7FEBA1E
:10361000FEE7C1F3045CC1F34061072300EB8100C6
:1036200003FA0CF302FA0CF2416999431143416128
:1036300070470000B0B588B068462021FCF7B3FEA3
:103640001F48204A4FF44031002401230425C0E9DB
:1036500000214FF48071C0E90244C0E90443856150
:103660008183022101624FF4805180F82440C0E937
:103670000B4480F83830C16380F84040FDF756FABB
:1036800008B1FDF789F806206946CDE901057F20DC
:10369000CDE903050C48059400900948FDF79CF816
:1036A00008B1FDF779F80C206946019007480090B1
:1036B0000348FDF791F808B1FDF76EF808B0B0BD0A
:1036C0009000002000060050020030040400600852
:1036D000E0B512480022016841F004010160016870
:1036E00001F0040101910199016841F001010160BB
:1036F0000021006800F00100009000980B20FEF708
:10370000ABFC0B20FEF79AFC0C2000210022FEF7F8
:10371000A3FC0C20BDE88C40FEF790BC4810024092
:1037200083B00F48016841F020010160016801F099
:10373000200102910299016841F0020101600168D3
:1037400001F0020101910199016841F0010101605C
:10375000006800F001000090009803B0704700BFBF
:103760004C10024070B5B8B000262DA81C21CDE940
:103770003666CDE93466FCF716FE15AD60212846A5
:10378000FCF711FE09A824211496CDE91266FCF776
:103790000AFE01AC20212046FCF705FEA0484B495B
:1037A000C0E900168660FEF79DF808B1FCF7F4FF4B
:1037B0009B480C21FDF7DDFD08B1FCF7EDFF9848B3
:1037C0000A21FEF727F908B1FCF7E6FF002647F2C9
:1037D000305034AA022135963490032036900820C8
:1037E00037908F48FEF73DF908B1FCF7D5FF8C48BC
:1037F0002DAA022130962D963396FEF787FB08B14D
:10380000FCF7CAFF002601203021CDE91766CDE97B
:103810001566199005F11400FCF7C5FD4FF4807092
:10382000279602212A4626907D48CDE92B66CDE9D0
:103830002966FEF731FA08B1FCF7AEFF43F698208F
:1038400012AB0221012212907548FEF745F908B12A
:10385000FCF7A2FF28204FF44061002509AA0A9036
:103860000991CDE90B55CDE90D506D480221CDE907
:103870000F551195FDF7A6FD08B1FCF78DFF04204B
:103880001421CDE901500820039004F10C00FCF74D
:103890008AFD6348022110222346FEF7CAF908B1C7
:1038A000FCF77AFF002001AB02212022CDE90200C3
:1038B0005B48FEF7BEF908B1FCF76EFF5848FEF70B
:1038C00079F838B070BD00BFBC010020006801402D
:1038D00010B594B00024684634211394CDE9114406
:1038E000CDE90F44CDE90D44FCF75DFDB748AA4989
:1038F00040F25132C0E90014C0E90242C0E9044478
:103900008461FFF708FA08B1FCF746FF4FF48050D6
:1039100010A91090AD48FFF74DFA08B1FCF73CFF35
:10392000AA4800240DA9CDE90D440F94FFF79CF996
:1039300008B1FCF731FFA54869460B940794FFF7DF
:1039400027F908B1FCF728FF14B010BD10B5174CCB
:1039500017494FF4612000220C23C4E9001004F140
:1039600018001421C4E90222C4E90423FCF71BFD5A
:103970002046FFF725FD08B1FCF70EFF0B4800219C
:10398000FFF70CFC08B1FCF707FF08480021FFF720
:10399000DFFB08B1FCF700FF0448FFF7BDFB002880
:1039A00014BFBDE8104010BDFCF7F6BE04030020B4
:1039B00000380140FEE770477047704703688B424C
:1039C00004DA93421146D8BF016070470160704726
:1039D000E0B510EE100A00F0B3FD9FED0F0B0246AC
:1039E0000B4651EC100B00F0CFFB00F025FD0190D1
:1039F00001A84FF6F7711822FFF7E0FF0848019978
:103A000000688AB201EBD171C0F89421C1F34F0173
:103A1000C0F89C118CBD00BF00000000FD43C441F4
:103A2000BC010020FEF7BABAF0B5A9B01BAD142155
:103A300005F10800FCF7B7FC01AC4C2104F10800CB
:103A4000FCF7B1FC00200026FEF738FB012003271D
:103A500055211B904FF480301C9002202290CDE91C
:103A60002370CDE92510CDE927002846FEF722FE78
:103A70000F200421CDE9160716A8CDE918661A967D
:103A8000FEF7CCFC4FF00110CDE901064FF00040ED
:103A900013902046FEF772FB29B0F0BD0548D0F820
:103AA000801041F47001C0F880104FF00061016097
:103AB000704700BF08ED00E010B5444C2068006975
:103AC00010F0010F05D0FCF769FE20686FF00101CE
:103AD00001613E48BDE81040FFF710BA0268B0F13E
:103AE000804F11D0294B98420ED0294B98420BD0D1
:103AF000284B984208D0284B984205D0274B984233
:103B000002D0274B984203D14B6822F070021A432F
:103B1000B0F1804F1AD01D4B984217D01C4B9842E1
:103B200014D01C4B984211D01B4B98420ED01C4B0A
:103B300098420BD01B4B984208D01B4B984205D0A3
:103B4000164B984202D0194B984203D1CB6822F40D
:103B500040721A434B6922F080021A4302608A685D
:103B6000C2620A688262124A02444FEAB222092AF9
:103B700008D8012303FA02F240F2E5231A421CBFDF
:103B80000969016301214161704700BF00040040E1
:103B900000080040000C0040002C01400050014093
:103BA0000034014000400140004401400048014011
:103BB00000D4FEBF05480068C16841F00101C16042
:103BC000016841F001010160704700BFB8020020A8
:103BD000D0F820C0036A23F001030362836923F055
:103BE000F00343EA021282612CF00A0211430162DF
:103BF0007047036A23F010030362836923F4704360
:103C000043EA0232036A826123F0A00242EA011110
:103C100001627047416ED9B180B50268DFF840C0DB
:103C2000DFF840E09168C1F3426192681CF801300E
:103C30001EF80110520FC900B1FBF3F11CF802305D
:103C40001EF80220D200B2FBF3F2BDE8804001E092
:103C500001220121A0F86810A0F86A20704700BF77
:103C6000744600086C460008816A11F0010F08D004
:103C700002685368D0F82CC023F4003343EA0C03E5
:103C800053608A0708D502685368D0F830C023F41F
:103C9000803343EA0C0353604A0708D5026853682F
:103CA000D0F834C023F4802343EA0C0353600A079E
:103CB00008D502685368D0F838C023F4004343EABB
:103CC0000C035360CA0608D502689368D0F83CC05C
:103CD00023F4805343EA0C0393608A0608D50268F4
:103CE0009368D0F840C023F4005343EA0C03936078
:103CF00080B54A0615D5D0F800E0DEF804C0436C64
:103D00002CF48012B3F5801F42EA0302CEF804209F
:103D100007D1DEF80420836C22F4C0021A43CEF8E7
:103D200004200906BDE8804058BF704701684A6812
:103D3000C06C22F40022104348607047BCB50446B2
:103D40000020C4F88800FDF705FB054620680168DF
:103D500011F0080F0AD013484FF4001100222B462F
:103D60000090204600F066F970B92068006810F0F5
:103D7000040F0BD00B484FF4800100222B4600901B
:103D8000204600F057F908B1032007E02021002069
:103D9000C4F8801084F87C00C4F88410C0B202B06B
:103DA000B0BD00BFFFFFFF01806A0021A0F85E10D8
:103DB000A0F85610FFF71ABAC9480068016841F028
:103DC00001010160704700BF0168074B0A6822F4D7
:103DD00090720A608A681A408A600021C1662021B8
:103DE000C0F88410704700BFFEFFFFEFF8B506462D
:103DF000426ED0F81CC001688368D0E90450804F3F
:103E00002B430C6818437F4B40EA0C0027407E4C44
:103E10001043994240EA070008604868F26820F4BD
:103E2000405040EA02004860B2691CBF306A024359
:103E30008868204010438860C86A726A20F00F00CA
:103E40001043C862714881421CD0714881421BD026
:103E5000704881421AD07048814219D0994219D0D5
:103E60006E48814240F058806D496E48096800F5FF
:103E7000806081F0020101F0030141EA810120FA32
:103E800001F516E0022506E0042504E0062502E01F
:103E9000082500E00A256248624C0068E84080F08E
:103EA000020000F0030040EA800024FA00F5994285
:103EB00021D005F01F030120BCF5004F0DD1082BC8
:103EC00000F295805849DFE803F0055762925A9254
:103ED00092926000FEF79CFB53E0082B00F2878073
:103EE0005149DFE803F0056772846A8484847000B6
:103EF000FEF78EFB63E005F01F030120082B00F2A4
:103F000076804949DFE803F0057313730A7373730E
:103F10001100FEF77DFB03E01025C8E7FEF794FBD8
:103F20000146002860D0726A01E04FF400413F482A
:103F3000756830F8122005EB45070120B1FBF2F35C
:103F4000BB4254D32F03BB4251D808460021002363
:103F5000FCF7B2F909022A46002341EA1061000287
:103F600010EB550041F10001FCF7A6F9304AA0F52D
:103F70004071914236D939E0FEF756FB01E0FEF779
:103F800063FB014680B3726A01E04FF400412748A9
:103F900030F81200B1FBF0F071684A0802EB400003
:103FA000B0FBF1F04FF6F07101401FD0C0F34200BA
:103FB000084317E0FEF738FB01E0FEF745FB01463A
:103FC00090B1726A01E04FF40041184830F81200D5
:103FD000B1FBF0F0716800EB5100B0FBF1F080B282
:103FE000102803D33168C860002000E001200021C0
:103FF0004FF00112C6E91A21316701B0F0BD00BFD0
:10400000F369FFCF00800040FFF4FF11004400403F
:1040100000480040004C0040005000400038014083
:1040200088100240020102000024F40054460008F7
:10403000FFFC0F002DE9F843DDF820900F460168E2
:1040400098461646044609F10105C8693840C01B68
:10405000B0FA80F04009B04225D1002DF5D0FDF72F
:1040600079F92168B9F1000F0A6821D0A0EB0800A6
:1040700048451DD85007E8D5C86910F4006FE4D052
:104080004FF400600862086820F4D0700860886807
:1040900020F0010088602020C4F88000C4F884006B
:1040A00004F1880010E00020C0B201B0BDE8F08348
:1040B00022F4D0700860886820F001008860202019
:1040C000C4F8800004F1840020210160002084F8FD
:1040D0007C000320E8E700000148FFF789B800BF33
:1040E00004030020FEE7000010B59FED0B0A094C09
:1040F0000948E060FFF76CFC08480949094A0A4B87
:10410000C4E90410C4E90623FCF7C4FABDE8104072
:10411000FFF76CBA700000200050C346999962C244
:104120009999E23CF06C0C3DF06C8CC210B5074CD8
:1041300000F00F03044AB0F1FF3F2344C8BF8318C7
:104140000801187010BD00BF00E400E014ED00E0AD
:1041500080B5FDF729FFFFF767FCFFF7E1FAFFF7EE
:10416000B7FAFFF767FAFFF7FDFAFFF7EFFBFFF784
:10417000AFFB4FF4FA70FDF715F8FFF71DFEFFF7E0
:10418000B3FFFFF717FDFEE72DE9C04130B4DFF8BC
:10419000A0C23CEA111418BF3CEA131400F0EC80F2
:1041A0001CEA111481EA030544EAD57418BF1CEA1D
:1041B000131500F0C780A4EB050404F17F7404F527
:1041C00000344FF0004545EAC12145EAC32341EAE6
:1041D000505143EA52534FEAC0204FEAC22299425B
:1041E00008BF904200F09C804FEA13650FF2401622
:1041F000765D4FEA134506FB05F7C7F1807706FBAE
:1042000007F74FEAD737A7FB03687642A7FB06CE2E
:10421000C8F5803838BFA8F1010807FB08E6A6FBFF
:10422000028C4FF0000EE6FB03CEDCF1000CCEF169
:10423000004E38BFAEF1010EA6FB0C584FF0000740
:10424000E6FB0E87A1FB08C6A0FB07CE16EB0E0609
:104250004FF0000545F10005E1FB076515F1E04E63
:104260007EBFA4F580345FEA46066D4116F18007F3
:1042700045F100054FEA172747EA05674FEA15257C
:104280004FEA0666A6F1DE46B6F1805F1FD93846D2
:1042900005EBC47124F0010C01EB0C11BCF1FE6FB5
:1042A00002D8F0BCBDE8008124425CBF01F5801E4D
:1042B0009EEAC47F02D4F0BCBDE80081244238D419
:1042C000A1F1C041F0BCBDE8004100F032B94FEAB5
:1042D000D02040EA41504FEAD1214FEAD22242EAAF
:1042E00043524FEAD323A7FB028607FB036605FB75
:1042F00002661EEA0E0F58BFA6EB0056B6EB00563C
:104300004FEA520E4EEAC37E18EB0E0E56EB530EDA
:10431000BDD518EB02085E417F1C55F10005B6E7DC
:104320004FF480154FF000074FF000064FF00008E3
:10433000ADE701F1C04101F000414FF00000F0BCD9
:10434000BDE800810CEA131511EA0C1F00D00CE047
:1043500013EA0C1F00F025804FF0000081EA0301F2
:1043600001F00041F0BCBDE80081F0BCBDE80041B7
:1043700081EA030100F0DDB8F0BCBDE8004170B592
:1043800000F089F8097EFC3E00F007B84FF000000D
:1043900081EA030101F00041704781EA030100F066
:1043A000C8B8F0BCBDE8004122494FF0000070479A
:1043B000FFFDFBF9F7F5F4F2F0EEEDEBE9E8E6E4EA
:1043C000E3E1E0DEDDDBDAD8D7D5D4D3D1D0CFCD71
:1043D000CCCBCAC8C7C6C5C4C2C1C0BFBEBDBCBBAA
:1043E000BAB9B8B7B6B5B4B3B2B1B0AFAEADACABA5
:1043F000AAA9A8A8A7A6A5A4A3A3A2A1A09F9F9E7F
:104400009D9C9C9B9A999998979796959594939330
:10441000929191908F8F8E8E8D8C8C8B8B8A8989C7
:10442000888887878685858484838382828181804A
:104430000000FF070000F87F4FEA41034FEA5353A3
:10444000A3F58063D3F11E03C8BFD3F1210C0CDDAB
:104450004FF0004242EAC12242EA505232FA03FCD3
:104460008CEAE17CACEBE1707047102BC4BF0020FC
:10447000704703F5787CBCF1FF3F04D06FF0004239
:1044800082EA2100704770B500F005F84992248057
:1044900000207047F2E70EF1020E2EF0030E5EF8D8
:1044A000046B364205D4012A43EB030515F5001FC2
:1044B00012D8012841EB010C1CF5001F0CD80ED1BD
:1044C0004FEAD17C0CEB4C0C0CF1020C15F5001FE3
:1044D00008BF4CEBD37C04E04FF0080C01E04FEA3E
:1044E000D37C0CEB4C0526FA05F606F00706B6F170
:1044F000040C06D20EEB860CBDE870404CF0010CAB
:104500006047DFE80CF0090B02024FF00041A1F513
:1045100000214FF0000070BD19461046012851EBF4
:10452000010418BFD4F5001484BF002001F000413D
:1045300070BD0808A0F500114FEA31017047000076
:1045400043004FEAD30C4FEA3C0C43401FBF4007E7
:104550000CF1605113F0FE4F70471CF0006F03D157
:104560000CF00041002070470CF0004343EA50700B
:1045700040EACC0010B500F00EF800BF0000009239
:104580004FEA0001FFF7D5BF4FF00041A1F5002130
:104590004FF0000070470EF1020E2EF0030E5EF891
:1045A000044B244204D44FEA4102B2F17F4F11D8A8
:1045B0004FEA4003B3F17F4F0CD80ED14FEAD07CC5
:1045C0000CEB4C0C0CF1020CB2F17F4F08BF4CEB22
:1045D000D17C04E04FF0080C01E04FEAD17C0CEBF9
:1045E0004C0324FA03F404F00704B4F1040C06D2DB
:1045F0000EEB840CBDE810404CF0010C6047DFE886
:104600000CF0070802024FF00040A0F5800010BD3A
:104610000846420018BFD2F1807288BF00F0004007
:1046200010BDF1EE100A4FF6FF71C0F2C03120EA62
:10463000010040F04070E1EE100A704700000000F9
:104640000000000001020304060708090000000042
:1046500001020304010002000400060008000A0031
:104660000C00100020004000800000010101010347
:10467000070100000804020408010101A046000827
:10468000000000201000000014020008B0460008DE
:104690001000002080090000300200080000000027
:1046A0001000000001000000000000000024F400E1
:04000005080001D915
:00000001FF
