:020000040800F2
:100000004019002019030008334200088D3E000803
:1000100031420008450F0008354B00080000000081
:100020000000000000000000000000005D42000829
:100030002310000800000000354200086543000856
:1000400033030008330300083303000833030008B8
:1000500033030008330300083303000833030008A8
:10006000330300083303000833030008490F000876
:10007000650F00083303000833030008330300084A
:100080003303000833030008330300083303000878
:100090003303000833030008330300083303000868
:1000A00033030008F9430008330300083303000852
:1000B0003303000833030008330300083303000848
:1000C0003303000833030008330300083303000838
:1000D00033030008294B00083303000833030008EA
:1000E0003303000833030008330300083303000818
:1000F0003303000833030008330300083303000808
:1001000033030008330300083303000833030008F7
:1001100033030008330300083303000833030008E7
:1001200033030008330300083303000833030008D7
:1001300033030008330300083303000833030008C7
:1001400033030008330300083303000833030008B7
:100150003303000833030008513D0008330300084F
:100160003303000833030008330300083303000897
:100170003303000833030008330300083303000887
:100180003303000833030008330300083303000877
:1001900033030008000000003303000833030008A5
:1001A0003303000833030008330300083303000857
:1001B0003303000833030008330300083303000847
:1001C0003303000833030008330300083303000837
:1001D000330300083303000800F002F800F08DF844
:1001E0000AA090E8000C82448344AAF10107DA4592
:1001F00001D100F082F8AFF2090EBAE80F0013F057
:10020000010F18BFFB1A43F001031847A450000068
:10021000C4500000103A24BF78C878C1FAD85207F9
:1002200024BF30C830C144BF04680C607047000070
:100230000023002400250026103A28BF78C1FBD8EF
:10024000520728BF30C148BF0B6070476E2900F0CD
:10025000D981702900F01B836629AFF300806529DE
:10026000AFF300806729AFF300806129AFF300800E
:1002700003681B0A28BF41F08001692900F08681CC
:10028000642900F08381752900F080816F2900F0D6
:10029000A982782900F0E782E92900F04382E42965
:1002A00000F04082F52900F03D82EF2900F0A6829F
:1002B000F82900F0E6820368DB0928BF41F08001DD
:1002C000632900F05B84732900F06084E32900F067
:1002D0006B84F32900F07084002070471FB504F090
:1002E0008EFF00F0CDFC04000020002104F07AFC19
:1002F000401C60601FBD10B510BD00F085FC1146AC
:10030000FFF7ECFF04F04CFC00F0ACFC03B4FFF78B
:10031000F2FF03BC00F0B8FC0948804709480047D9
:10032000FEE7FEE7FEE7FEE7FEE7FEE7FEE7FEE7A5
:10033000FEE7FEE704480549054A064B7047000002
:10034000DD430008D90100084013002040190020B7
:10035000401500204015002053EA020C00F069808F
:100360002DE9F04B4FF00006002B1FBFB3FA83F5C9
:1003700003FA05F424FA05F65E4012BF1643B2FAFA
:1003800082F502FA05F4C5F120051EBF22FA05FC2C
:1003900044EA0C04203556EA044C4FEA144418BFD2
:1003A000641C4FF000084FF00009904271EB030C01
:1003B00039D3002919BFB1FA81F701FA07F6B0FA6B
:1003C00080F700FA07F6C7F120071EBF20FA07FCE6
:1003D00046EA0C062037B6FBF4FCA7EB0507103FF6
:1003E00007F01F0BCBF120062CFA06F60CFA0BFBDC
:1003F00044BFB3460026202FA4BF5E464FF0000B3B
:100400005BEA060C08BF4FF0010B19EB0B0948EB38
:100410000608ABFB027C06FB02CC0BFB03CCC01B2B
:1004200071EB0C01C1E70B46024641464846BDE868
:10043000F08B13B54FF000004FF00001AFF30080D8
:10044000BDE81C40704700000FB41CB5084B06AA5D
:100450007B4469460090059800F0EDF804460020C2
:10046000694600F0FBF820461CBC5DF814FB000058
:10047000090200004FF0000200B51346944696466C
:10048000203922BFA0E80C50A0E80C50B1F12001A7
:10049000BFF4F7AF090728BFA0E80C5048BF0CC055
:1004A0005DF804EB890028BF40F8042B08BF7047B3
:1004B00048BF20F8022B11F0804F18BF00F8012B25
:1004C000704770477047704770B50446856900688B
:1004D000C10601D5302600E02026C00707D070BD38
:1004E000D4E9012130469047206A401C20626D1EED
:1004F000F6D570BD70B5044685690078C00707D190
:1005000070BDD4E9012120209047206A401C206260
:100510006D1EF6D570BD09684A0501D540B2704719
:10052000C905FCD500B2704709684A0501D5C0B2BB
:100530007047C905FCD580B2704770B50C460546BA
:10054000012A05D02878800600D5EA69002302E058
:10055000012305E05B1C934202D2E05C0028F9D144
:10056000A869E618C01AA861286A184428622846B3
:10057000FFF7AAFF04E0D5E9012114F8010B904729
:10058000B442F8D32846FFF7B5FF70BD2DE9F0411E
:100590000646002410687529314616A510D0FFF7CD
:1005A000BAFF002802DA404213A507E031688A0743
:1005B00001D512A502E0490704D511A5012401E0E7
:1005C000FFF7B2FF00210A2206F1240709E0B0FB81
:1005D000F2FCB0FBF2F302FB1C00303078541846FA
:1005E000491C0028F3D123462A463046BDE8F04195
:1005F00000F061BA000000002D0000002B00000098
:100600002000000011680268006A530501D50870D7
:100610000AE0D30501D5088006E0130603D5C2170A
:10062000C1E9000200E008600120704701694A1C2E
:1006300002610878704700B58FB0CDE90131002123
:10064000059105497944CDE903101146684600F04B
:1006500029F90FB000BD0000E5FFFFFF0A6802F8AE
:10066000010B0A60704700002DE9FF5F15468A46BE
:100670000446DFF8AC80F8440027D8E900103E4675
:10068000CDE9001010E03AF816106A4602A800F012
:1006900097FA411C07D02178890603D5E2693918F9
:1006A00091420DD80744761C2078800602D5E06977
:1006B000B84205DDAE42E6DB3AF816000028E2D18A
:1006C000A069C01BA0612046FFF7FEFED8E900101C
:1006D000CDE90010002017E03AF818106A4602A889
:1006E00000F06EFAB0F1FF3F81460BD000250DF10E
:1006F000080B05E0D4E901211BF8050090476D1CAB
:100700004D45F7D308F10100B0428046E4DB206A92
:10071000384420622046FFF7EDFEBDE8FF9F000051
:100720009E4B00002DE9F0418046D21D22F00702C9
:100730000025D2E90002F52915A614D0011E72F198
:10074000000106DA0023D0EB030063EB020211A6DE
:1007500008E0D8F800108B0701D50FA602E0490782
:1007600001D50EA601251146002408F1240704E056
:1007700000F05CF930323A55641C50EA0102F7D1BE
:100780002B46324621464046BDE8F04100F093B981
:10079000000000002D0000002B00000020000000E1
:1007A00030B4002100F1240408E002F00705D2086B
:1007B000303542EA4372DB086554491C52EA0305AE
:1007C000F3D10468002310A2250708D504F0200403
:1007D0000C4304D0C46901230CA2641EC46130BC64
:1007E00000F069B910B5044621461068FFF79CFE79
:1007F00002462046BDE810400023D1E7D21D22F07A
:100800000701D1E90023CBE7000000003000000021
:10081000F0B40D460188090502D5214C7C4402E064
:100820001F4C7C440E34002100F1240608E002F045
:100830000F071209E75D42EA03721B097754491C4E
:1008400052EA0307F3D102780023120704D5702D72
:1008500006D009B1022311342246F0BC00F02BB9B6
:1008600001231034F8E770B504460D4621461068A0
:10087000FFF75AFE024629462046BDE87040002395
:10088000C6E7D21D22F00703D3E90023C0E70368BF
:10089000126843F0200303600823C3610023B7E715
:1008A000004A00002DE9F05F894604464FF0000A37
:1008B000DFF874B1FB44C0F820A02046E168884707
:1008C000002874D0252806D0D4E901219047206A59
:1008D000401C2062F1E700265F462046E168884719
:1008E0002028054607DB312D05D2781910F8200C99
:1008F00008B10643F1E7B00701D526F00406C4F8B5
:100900001CA00027C4F818A02A2D09D0284604F0FE
:1009100062F938B304EB8708303DC8F8185019E085
:1009200059F8041B204604EB87029161E16888476F
:10093000012F054618D1E069002820DA26F02006AC
:100940001DE0D8F8180000EB800005EB40003038BF
:10095000C8F818002046E1688847054604F03BF9CE
:100960000028EED1012F0AD02E2D08D12046E168B3
:1009700088477F1C0546022F46F02006C4DBA0698D
:10098000002803DA404246F00106A061F00701D0DA
:1009900026F010066C2D0BD0682D09D04C2D39D0C7
:1009A0006A2D35D0742D35D07A2D33D016E038E04D
:1009B000E1682F4620468847B842054609D16C2F8A
:1009C00026D04FF48060E1680643204688470546FC
:1009D00004E06C2F1AD04FF4807006430DB3A5F1DC
:1009E0004100192802D8203546F400664A462946B7
:1009F000204626604E46FFF729FC80B101280BD027
:100A0000F61D26F0070000F1080956E74020E4E74C
:100A10008020D8E70020D6E706F104094DE72846F4
:100A200052E7206ABDE8F09F9049000030B5B0F170
:100A30000A0271F100034FEA900E4EEA817EB0EB9C
:100A40000E0061EB91014FEA101E4EEA017E10EBA1
:100A50000E0041EB11114FEA102E4EEA016E10EB21
:100A60000E0041EB11214FEA104E4EEA014E10EB01
:100A70000E0041EB1141401841F100014FEAD00056
:100A800040EA41704FEAD1014FEA810444EA907490
:100A900010EB800544EB01046D1944EB0404521B78
:100AA000A3414FF0000348BF0A3200D530BD401CBF
:100AB00041F1000130BD2DE9F0470D4699469246BF
:100AC000044600F124080168880604D5E06921F095
:100AD0001001216000E00120A84201DD471B00E079
:100AE0000027A1697A1902EB0900081AA061207891
:100AF000C00602D42046FFF7E7FC002608E0D4E950
:100B000001211AF806009047206A401C761C2062DA
:100B10004E45F4DB2078C0060AD52046FFF7D4FC0A
:100B200006E0D4E9012130209047206A401C206271
:100B3000381EA7F10107F4DC07E0D4E9012118F819
:100B400005009047206A401C2062281EA5F101057F
:100B5000F3DC2046FFF7CEFC2078000602D5022009
:100B6000BDE8F0870120FBE710B5436913B1AFF38F
:100B7000008001E0FFF7E1FC012010BD127800F1D8
:100B800024010A7000224A700122EDE711684FF03B
:100B9000FF32E9E710B5436913B1AFF3008001E01C
:100BA000FFF762FD012010BD128800F1240182844C
:100BB0000022C2840122EDE711684FF0FF32E9E71D
:100BC0002DE9F04116460C46054600F043F803684F
:100BD00093F80101012807D0FF2C12D8185D80B1CD
:100BE00001202C70BDE8F081D3F807013246214680
:100BF00003F20713C7182846BC46BDE8F04100239E
:100C000060474FF0FF30EDE7754600F035F8AE462F
:100C100005006946534620F00700854618B020B508
:100C2000FFF788FBBDE820404FF000064FF00007BB
:100C30004FF000084FF0000BAC46ACE8C009ACE840
:100C4000C009ACE8C009ACE8C00921F007018D4635
:100C50007047000010B500F013F8001D10BD00BF74
:100C6000853F000010B50446AFF300802046BDE884
:100C70001040FFF74BBB00000048704718000020F1
:100C8000004870473800002001491820ABBEFEE73D
:100C9000260002000000000030B44FF0013C50F884
:100CA000042B51F8043BCCFA52F4D51A20D1FCB9EC
:100CB00050F8042B51F8043BCCFA52F4D51A17D152
:100CC000B4B950F8042B51F8043BCCFA52F4D51ABD
:100CD0000ED16CB950F8042B51F8043BCCFA52F405
:100CE000D51A05D1002CDAD030BC4FF00000704787
:100CF00029BAB1FA81F111F01801D1F12000844034
:100D0000F2D1CA40CB4012F0FF0213F0FF0330BC17
:100D1000D01A70477047000070B5044600688268BA
:100D20008368DB0843EA9202D20750D0C26892017E
:100D30000FD5627F012A0CD1227F012A09D1254AD1
:100D40004FF0FF3103685B0607D401319142F9D3BC
:100D500033E0022904D1022111E040210160012188
:100D60008268520707D58268920704D482686B4B69
:100D70001A4010328260012901D1042611E08268F4
:100D8000120707D58268920704D48268634B1A4021
:100D9000203282600426022908BF0826032908BFE2
:100DA0000C2600F009FF05462068806830420ED00E
:100DB00000F002FF401B0628F6D3E06D40F0100063
:100DC000E065206E40F001002066012070BD00202B
:100DD00070BD00BF000040A30146806AC36DC26DB4
:100DE00013F0500F07D0D20648BF00F0E5BA406DAF
:100DF000426B0846104742F40071C16501680B68F8
:100E0000CA681B070ED491070AD4C16D21F4807102
:100E1000C165C16DC9045EBFC16D41F00101C1650D
:100E200000F0C8BA12F4406F18BF00F0C3BAC96826
:100E30008904EAD5F4E7806AC16D41F04001C165DB
:100E4000016E41F00401016600F0B6BA806A00F05C
:100E5000B2BA0000B0B50168044688688A688007A5
:100E60004FF0000026D412F0010208BFB0BD886820
:100E700000F00D00012814D18868284A1040023083
:100E800088600320086000F097FE054620688068AF
:100E9000C00704BF0020B0BD00F08EFE401B032839
:100EA000F4D3E06D40F01000E065206E40F00100EA
:100EB00020660120B0BD00BF70B50446006881689F
:100EC000C90728D1154E816806F17F02114218D159
:100ED0008168314041F00101816000F06DFE0546FE
:100EE00020680168C90716D18168C90704D18168E3
:100EF000314041F00101816000F05EFE401B03289B
:100F0000EED3E06D40F01000E065206E40F001008F
:100F10002066012070BD002070BD00BFC0FFFF7FB4
:100F200010B50E4C204600F025FC4D49204602220B
:100F300000F098FB606D0068016821F00601016017
:100F400010BD00BFFEE700000448406D0068016866
:100F500021F006010160024800F068BC3C1000204E
:100F6000A8100020014800F061BC00BF081100205B
:100F700010B5104C04F18002A4F57E712034C264D7
:100F80000268436C8A4223F003013CBF40F6000430
:100F9000C4F20204214481646FF0070151FA82F126
:100FA0001422B1FBF2F1012201F01F0102FA01F15A
:100FB000016510BD00080240037907490122013B89
:100FC00001F1400C01EB830103F01F039A40C0E9DB
:100FD000151CC265704700BF0009024010B5D0E97A
:100FE00013CE0124CCF804E0D0F854C0BCF1000FBB
:100FF0001CBFD0E916CECCF804E0D0E910CE0EF03C
:101000001F0E04FA0EF4CCF8044004686360806894
:101010001028084608BF1046A06008BF0A46E260D4
:1010200010BD7047704700000D484188028890ED60
:10103000040A90ED051A90ED062A90ED073A04EEA9
:10104000102A05EE101AB8EE444AB8EE455A00EEE2
:10105000041A02EE053A80ED011A80ED023A70475B
:101060001C100020F8B504460020009094F85800A9
:10107000012801D1022089E101200D4684F85800A1
:1010800020688168490726D4D5E900121F2702F09D
:101090001F03C2F3012200EB82029F40166BC1F3D3
:1010A0008461994026EA07073943116381688268A1
:1010B000D20842EA9101C90740F09880AA682968DD
:1010C000B2F1004F0DD1002202F0E1FE206841692B
:1010D00041F000410BE0E06D40F02000E0650120B0
:1010E00051E102F0D4FE2068416921F000414161E4
:1010F000D5E90412C36804294DD1016E016E2A6836
:10110000530392FAA2F7C2F3846318BFB7FA87F3C6
:10111000C1F384679F499F4204D1026E22F00042CE
:1011200002662A68436E92FAA2F70A42C2F3846307
:1011300018BFB7FA87F3476EC7F384679F4204D19D
:10114000426E22F0004242662A68836E92FAA2F74B
:101150000A42C2F3846318BFB7FA87F3876EC7F3F6
:1011600084679F4204D1826E22F0004282662A6820
:10117000C36E92FAA2F70A42C2F3846318BFB7FAA9
:1011800087F3C16EC1F38461994202BFC16E21F041
:101190000041C1662AE000F16006D5F800C07C4F2E
:1011A00056F821E00EEA070E062707EA93039A4055
:1011B0000CF0F8431A4342EA0E0242F0004246F8AD
:1011C00021202969AA6956F8213023F080731A4337
:1011D00046F821202A69297F56F82230012923F078
:1011E000007308BF03F1007346F822308168C90715
:1011F00067D1D5F800C0EA686649D0F8B070634698
:1012000002F018066FF3DF43F1409F431940394362
:10121000C0F8B01060498A4253D19CFAACF1002B5F
:101220004FEA9C67B1FA81F2114608BF4FEA9C6110
:10123000013101F01E0109290DD8D3B1511C4FF025
:10124000806707EB826201F01F030121994002F0E1
:10125000F842114319E0EBB1511C4FF0806707EBE6
:10126000826201F01F030121994002F0F84211430C
:101270001CE00CF0F842791C02F1806201F01F03BF
:101280000121994002F0F842114303EB430241EA85
:10129000025113E00CF0F842791C02F1806201F077
:1012A0001F030121994002F0F842114303EB43026E
:1012B0003A4B03EB0252114341F00071AA6802F06D
:1012C000E6FD2968364801425CD0BA482568354FAA
:1012D00000F5007285428646134618BF00F5C063CC
:1012E000B5F1A04F184608BF1046B942866806F00F
:1012F000E07C02D02C4FB94220D1300242D4B5F16B
:10130000A04F03D0D34885423CD11A469068A749E4
:1013100020F0E07040EA0C0040F400009060A24829
:101320000068B0FBF1F000EB4000800001E00098A5
:101330000138009000980028F9D123E01B4FB942F2
:1013400008BF16F0807715D0194F0020B94208BFAA
:1013500016F4800117D1B5F1A04F02D0754511D018
:101360001A46906820F0E07040EA0C0040F48000DB
:10137000906007E0816821F0E07141EA0C0141F0E2
:10138000807181600020002184F8581001B0F0BD08
:1013900000F0FF03FFFF070000007F40000020FE79
:1013A00000000880000021C31000C090000052C758
:1013B000000084CB7047704770470000BCB50446FE
:1013C0000020002C019034D0E06D30B9204600F0B0
:1013D000F7F8002084F858002066216888688000AB
:1013E00003D588686F4A104088608868C00013D4AD
:1013F0006C4A886802F1805210406C4A40F080507C
:10140000886069480068B0FBF2F001E0019801389B
:10141000019001980028F9D18868C0000BD4E06DD4
:1014200040F01000E065206E40F0010020660120D1
:1014300002E00120B4E000208A68C2F38002E36D7C
:1014400003F01003D218E26D03D042F01001012026
:10145000A5E022F481720232E2658A68D20726D1C1
:10146000BE4B41F48072524D9A4203D12B68D5F89D
:10147000002106E0D5F80024D5F800351A43D5F848
:1014800000361A43D20712D105F1F80205F53E7372
:1014900091421A4618BF05F5DF62B1F1A04F08BFAF
:1014A0001A466368956825F47C152B439360627F28
:1014B000E36B43EA4232D4E902352A431A4394F8F3
:1014C000243042EA0342012B04D1A36A3A4D05EBD2
:1014D00043431A43E36A23B103F478731A43236B3B
:1014E0001A43CB68354D2B401A43CA600A69636BB7
:1014F00022F040621A430A618A688B68DB0843EA7B
:101500009202D2073DD194F8383094F81CC0CD68CF
:1015100044F202025B0025EA020243EA8C331A43DA
:10152000CA6022690B694AB143F4803343F6FF7500
:101530000B61D1F8C030AB431A4307E023F480328B
:1015400043F6FF730A61D1F8C0209A43C1F8C02066
:1015500094F840300A69012B10D140F2FD7322EA61
:10156000030CD4E91135D4E9132E43EA0C032B43C1
:101570001A4342EA0E0242F0010201E022F00102A7
:101580000A6163690A6B22F00F02012B02BF236A12
:10159000013B1A430A630122E16D62F30101E16537
:1015A00002B0B0BDC0FFFF5F10000020400D03007F
:1015B00008000050000100500000FEFF0740F0FF4F
:1015C00070B586B0044601A81421FEF753FF2068C9
:1015D000204988423BD120480026016841F48041DF
:1015E0000160016801F4804100910099016841F0B7
:1015F0000101016001A9006800F00100009000985D
:10160000032002904FF4407001904FF090400396F9
:1016100000F014FA114D1249272080224FF48073F4
:101620004FF4806C4FF0200EC5E9001005F110005A
:10163000C5E9026680E80C504FF400502862284645
:1016400000F046F908B1FFF7EDFC6565AC6206B045
:1016500070BD00BF000600504C100240A8100020D2
:10166000080002402DE9F0413C4F0E460168044657
:10167000904607F50070B942024618BF07F5C062F0
:10168000B1F1A04F08BF024690688968490703D4AA
:1016900094F85810012902D10220BDE8F08100F031
:1016A0001F050120092D84F858001DD8A84040F2DC
:1016B0002121084218D02046FFF7FEFB20B100216F
:1016C00084F85810BDE8F0812168E06D40F60172A1
:1016D0009043B94200F58070E0650BD0204881420C
:1016E0000DD107F5407007E0002084F85800012074
:1016F000BDE8F0814FF0A0400DB1884203D1E06D0C
:1017000020F48010E065E06D164B174F174D002256
:10171000C0044FF0000044BF206E20F00600206699
:10172000606DC0E90B731C2345630B6084F858207F
:1017300043464A6842F010024A60CA6842F0010219
:10174000CA604031324600F023F92168084B8A68AC
:101750001A4004328A60BDE8F08100BF00010050E9
:10176000000500504D0E0008D90D0008370E000886
:10177000C0FFFF7F10B5044690F85800012804BF51
:10178000022010BD0120032184F858002046FFF7F5
:10179000C3FA50B92046FFF75DFB30B9E06D41F266
:1017A000011188430130E0650020002184F85810C1
:1017B00010BD90F8251002292ED101680A6822F088
:1017C0000E020A600A6822F001020A60816C0A684F
:1017D00022F480720A60D0E9101202F01F03012285
:1017E00002FA03F34B60D0E913134B60416D31B142
:1017F0000B6823F480730B60D0E916134B60002153
:1018000080F8241080F82520826B6AB180B590475B
:101810000021BDE8804007E00421C163002180F879
:101820002410012180F8251008467047B0B5D0E992
:1018300010C4DCF80010026804F01F0E13685C0787
:1018400010D5042404FA0EF414EA01050AD0116834
:1018500089065EBF116821F004011160CCF80440D4
:10186000016B30E09C0716D5022404FA0EF414EA4A
:10187000010510D01168890606D4116821F00A010B
:101880001160012180F825100021CCF8044080F877
:101890002410C16A17E01B0719D5082303FA0EF3B9
:1018A000194008BFB0BD116821F00E01116001217F
:1018B00001FA0EF2CCF804200022C16380F8242043
:1018C00080F82510416B11B1BDE8B0400847B0BDAC
:1018D00000284AD0F8B5044602202B49142384F886
:1018E000250004F11807206801F108029042274AF8
:1018F00038BFA1F5806138BF02F580620244B2FBB7
:10190000F3F29200C4E9101247F6F072016821EA7E
:10191000020CD4E90223D4E9041EE0CF42EA0C020F
:101920001A43114341EA0E0129433143394301600F
:101930002046FFF71DFBA068B0F5804F06BF0020D2
:1019400060606068A16CC2B201380A600328D4E903
:1019500013124A600BD82046FFF72EFB606D002162
:101960000160D4E91601416005E0012070470020C4
:10197000C4E91500E06500200121E06384F824003B
:1019800084F82510F8BD00BF00040240F8FBFDBF3D
:1019900010B5044690F82400012820D0012084F8D6
:1019A000240094F82500012816D1022084F825008F
:1019B0000020E063D4F800C0DCF8000020F0010053
:1019C000CCF800002046FFF709FB2068226B016875
:1019D0003AB141F00E010AE0002084F82400022010
:1019E00010BD21F004010160016841F00A010160AD
:1019F000A16C0A68D20342BF0A6842F480720A608E
:101A0000616D19B10A6842F480720A60016841F0A0
:101A100001010160002010BDB0B5044600F0CCF813
:101A200005460548611C406818BF044400F0C4F82E
:101A3000401BA042FAD3B0BD080000202DE9FC4FA6
:101A4000584A06274FF0000B4FF0010A4FF00309E8
:101A50000026904200F138424FEAB22308BF052722
:101A6000052B38BF4FEAB227002200970D6835FAE0
:101A700006F408BFBDE8FC8F0AFA06F415EA040C68
:101A800000F08A804D68122D15D80AFA05F313F07C
:101A9000061F10D0D0F808E0CF6809FA02F32EEA4A
:101AA000030397403B438360C5F300134768B3408B
:101AB000A7433B434360C7688C6809FA02F36FEAA7
:101AC000030E9F43944045F010032743122BC76039
:101AD00011D10BF01C030F2404FA03F76FF0030479
:101AE00004EA560505442C6ABC430F6907FA03F360
:101AF00023432B624D68046805F00303934004EA16
:101B00000E073B430360EB0046D5294B264C0BF0F8
:101B10000C051F461B68A64643F001033B603B686B
:101B200003F00103019326F003032344214C019F9A
:101B3000A0461F590F24AC40A743009C04FA05F5AA
:101B40002F4343F80870DEF800304D6843EA0C0775
:101B5000EC0358BF23EA0C07AC03CEF80070DEF8A4
:101B6000043043EA0C0758BF23EA0C07EC02CEF816
:101B70000470DEF8083043EA0C0758BF23EA0C076C
:101B80000A4BAD02CEF808701C461B6843EA0C07EE
:101B900058BF23EA0C0727600BF1040B0232013611
:101BA00064E700BF00140048000401400C04014039
:101BB0006010024008FCFFFF01480068704700BF4A
:101BC0003C1300207047704770477047704770475C
:101BD00070477047704790F8DC300222012B21D00B
:101BE00080F8DD2001224B1C80F8DC200268D2F84E
:101BF000CCC309D04CF00203C2F8CC33D2F8CC33BA
:101C000023F00C03194301E02CF00201C2F8CC13BD
:101C1000D2F8CC1341F00101C2F8CC13012100220B
:101C200080F8DD101046704790F8DD30022B01D1AE
:101C300002233EE090F8DCC00223BCF1010F38D053
:101C4000B0B580F8DD301C4C536904EA034CD2E98E
:101C50000043D2E902E504F4E0546FF35F2305F496
:101C6000004523440EF400742344146904F48044B2
:101C70002344124C2B449569634405F000752B44B2
:101C8000156AD26905F0804502F000422B431A43E1
:101C9000036803EBC111D1F8B83023401A43002385
:101CA000C1F8B820012180F8DC3080F8DD10BDE8F3
:101CB000B0401846704700BF0000FF010020003C04
:101CC0007047704770477047704770477047B0B5AE
:101CD00004460068062950D00D46FF2940F09A803E
:101CE000D0F88813C9071CBFD0F890135FEAC17100
:101CF00040F04181D0F88813890744BFD0F8901391
:101D00005FEA817100F13F81D0F88813490744BF31
:101D1000D0F890135FEA417100F13D81D0F888134B
:101D2000090744BFD0F890135FEA017100F13B81CD
:101D3000D0F88813C90644BFD0F890135FEAC16198
:101D400000F13981D0F88813490644BFD0F89013C8
:101D50005FEA416100F13781D0F88813890644BFFA
:101D6000D0F890135FEA816153D52021C0F88C131D
:101D70002046BDE8B04000F0B5BAD0F88813C903DA
:101D800044BFD0F890135FEAC13100F12481D0F84C
:101D90008813890344BFD0F890135FEA813100F1C2
:101DA00029814168C9071CBFC1685FEAC17140F061
:101DB0002A814168890744BFC1685FEA817100F1E7
:101DC0002A814168490744BFC1685FEA417100F157
:101DD0002A814168090744BFC1685FEA017100F1C7
:101DE0002A814168C90644BFC1685FEAC16100F148
:101DF0002A814168890644BFC1685FEA816100F1B8
:101E00002A814168490644BFC1685FEA416100F127
:101E10002981B0BD00EBC511D1F88420D2071CBFC9
:101E2000D1F88C205FEAC27240F0248100EBC5112A
:101E3000D1F88420920744BFD1F88C205FEA8272E7
:101E400000F1218100EBC511D1F88420520744BF75
:101E5000D1F88C205FEA427200F11E8100EBC511BF
:101E6000D1F88420120744BFD1F88C205FEA0272B7
:101E700000F11B8100EBC511D1F88420D20644BFCC
:101E8000D1F88C205FEAC26200F1188100EBC51125
:101E9000D1F88420520644BFD1F88C205FEA426218
:101EA00000F1158100EBC511D1F88420120644BF62
:101EB000D1F88C205FEA026200F1128100EBC511BB
:101EC000D1F88420D20544BFD1F88C205FEAC252F9
:101ED00000F10F8100EBC511D1F88420920544BFB9
:101EE000D1F88C205FEA825200F10D8100EBC51120
:101EF000D1F88420520544BFD1F88C205FEA4252C9
:101F000000F10B8100EBC511D1F88420120544BF0C
:101F1000D1F88C205FEA025200F1098100EBC51173
:101F2000D1F88420D20444BFD1F88C205FEAC242A9
:101F300000F1078100EBC511D1F88420920444BF61
:101F4000D1F88C205FEA824200F1058100EBC510D8
:101F5000D0F88410490446BFD0F88C105FEA4141A4
:101F6000B0BD4FF48041C0F8881020462946BDE836
:101F7000B040FFF7A5BE0121C0F88C132046FFF743
:101F8000A0FE2068B6E60221C0F88C132046FFF7B9
:101F900099FE2068B8E60421C0F88C132046FFF7AC
:101FA00092FE2068BAE60821C0F88C132046FFF79D
:101FB0008BFE2068BCE61021C0F88C132046FFF78A
:101FC00084FE2068BEE64021C0F88C132046FFF74F
:101FD0007DFE2068C0E64FF48031C0F88C130020ED
:101FE00084F8DC00012084F8DD002046FFF7F2FDD4
:101FF0002068CCE64FF40031C0F88C132046FFF780
:10200000E1FD2068CDE60121816020460621FFF731
:10201000DCFD2068CDE60221816020460621FFF725
:10202000D5FD2068CDE60421816020460621FFF71A
:10203000CEFD2068CDE60821816020460621FFF70D
:10204000C7FD2068CDE6102181602046062100F002
:1020500047F92068CDE620218160204600F041F953
:102060002068CEE64021816020460621BDE8B040D0
:1020700000F035B90120C1F8880020462946FFF755
:10208000A4FD2068D2E60220C1F888002046294637
:10209000FFF79CFD2068D5E60420C1F888002046A3
:1020A0002946FFF794FD2068D8E60820C1F888008B
:1020B00020462946FFF78CFD2068DBE61020C1F89A
:1020C00088002046294600F00BF92068DEE6402013
:1020D000C1F888002046294600F001F92068E1E6B1
:1020E0008020C1F8880020462946FFF76CFD206853
:1020F000E4E64FF48070C1F8880020462946FFF7D7
:1021000063FD2068E6E64FF40070C1F888002046C1
:10211000294600F0C0F82068E8E64FF48060C1F876
:1021200088002046294600F0B5F82068EAE64FF41A
:102130000060C1F888002046294600F0AEF820680B
:10214000ECE64FF48050C1F888002046294600F0A4
:10215000A3F82068EEE64FF40050C1F8880020464E
:102160002946FFF736FD2068F0E60000002846D03B
:102170007CB5044602201C2184F8DD0004F1E00057
:10218000FEF778F9207AC00719D020683E498842C6
:1021900009D129490A6842F080620A60096801F0A1
:1021A0008061019101990168D4E9042321F470410F
:1021B00002F44042114403F44052114401602046AD
:1021C00000F020F8207A800706D520680168E268D0
:1021D000120A62F30921016000250026012084F81B
:1021E000DC5084F8DD00C42E04BF00207CBDA019A3
:1021F000142105631830FEF73DF91C36F3E7012082
:10220000704700BF00682049884218BF7047E0B59A
:1022100009480022016841F08061016000210068E6
:1022200000F0806001900198462000F05BFB4620A2
:10223000BDE88C4000F048BB6010024010B586B08D
:10224000044601A81421FEF715F920680E498842BA
:1022500018D10E48016841F00201016001A900682F
:1022600000F0020000900098022002904FF44050CD
:10227000019000200390032004900D200590044855
:10228000FFF7DCFB06B010BD006801404C100240B7
:10229000000400487047704770477047F8B50D4616
:1022A0000446FFF789FC06466F1C2068D0F88803B7
:1022B000C0030CD4002FF8D0FFF77EFC15B1801BB3
:1022C000A842F2D9072084F8DD00032005E00020B1
:1022D000012184F8DC0084F8DD1001B0F0BD704706
:1022E00070477047704790F8DDC00223BCF1020FC1
:1022F00032D080B580F8DD300629036810D1196826
:1023000021F01F0CD2E9021E21F0180141EA0C0154
:1023100041EA0E011960116859615168996115E02F
:1023200003EBC111D1F8803023F01F0CD2E9023E3B
:1023300023F0180343EA0C0343EA0E03C1F880308C
:102340001368C1F894305268C1F898200121002325
:1023500080F8DD10BDE880401846704780B590F8E1
:10236000DDC0BCF1020F02D14FF0020C8DE090F8FD
:10237000DCE04FF0020CBEF1010F00F0868080F827
:10238000DDC04FF0010C062980F8DCC00CD1511ED5
:1023900007291BD8DFE801F004211A251A1A1A2987
:1023A00001681A68CA6162E0A2F1010CBCF1070F72
:1023B0000CD8DFE80CF0041E0B330B0B0B3A026851
:1023C00002EBC1111A68C1F89C2050E0002180F88E
:1023D000DC10072180F8DD1049E001681A684A62C4
:1023E00045E001681A688A6241E001681A68CA62B9
:1023F0003DE0026802EBC11C1968CCF8A4106146EC
:10240000D3F804E051F8802F22F44052BEF1000FBF
:102410000A602CD00A6842EA0E021AE0026802EB57
:10242000C1111A68C1F8A82021E0026802EBC11CA2
:102430001968CCF8AC106146D3F804E051F8802F4D
:1024400022F44042BEF1000F0A6010D00A6842EA4E
:102450008E02BEF5405F0A6006D0BEF5005F04BF85
:102460009968CCF89C1002E09968CCF8A81090F814
:10247000DD10072902D14FF0010C06E04FF0000CEF
:10248000012180F8DCC080F8DD10604680BD90F846
:10249000DC300222012B0BD080F8DD2002681368AB
:1024A000194311600022012180F8DC2080F8DD1042
:1024B00010467047B0B5044690F8DD00022804BF0E
:1024C0000220B0BD94F8DCC00220BCF1010F08BFAF
:1024D000B0BD84F8DD000125204684F8DC5001F011
:1024E00061FC002084F8DC0084F8DD50B0BD90F879
:1024F000DC300222012B0DD080F8DD200268D2F8FA
:1025000094331943C2F894130022012180F8DC208F
:1025100080F8DD10104670472DE9F04F87B0044673
:1025200090F8DD00022801D1022015E194F8DC309A
:102530000220012B00F0108184F8DD000120062923
:1025400084F8DC008648D4F800A03BD1DAF80060BB
:10255000DAF8A0C3556926F0E00625F0C007202D63
:1025600046EA070606D09569042D58D0032D59D0A8
:10257000022D5AD146F0200600F14057824802F160
:10258000240E3740D2E907659EE80848D2E90C8955
:10259000304025F06E4523F0684338432843184304
:1025A0002BF06043184340EA8E0020F0005040EAD0
:1025B0000900CAF800002CF4803040EA0800CAF88C
:1025C000A003B2E00AEBC1178046BC463B465CF86C
:1025D000800F20F07040CCF80000DCF8000053F8C9
:1025E000E85F0097069303953B4653F8E45F029536
:1025F000059320F02005DAF8A003576947EA05069D
:10260000202F049006D09569042D11D0032D11D0F0
:10261000022D13D126F4D07505F1200610E046F006
:102620008006A9E746F04006A6E726F0E006A3E705
:10263000022500E0012565F3C81601E026F4D076F6
:10264000434606EA0805D2E90767D2E9090803F517
:102650000063334020F078402B4327F07E452B4326
:10266000184328F070431843D36A40EA030623B99D
:10267000D06D26F4007343EA402602F1340B39484A
:102680009BE8800B06EA000386463748B7F1005FF7
:1026900008BF46F400330EF5003608EA000500F5E1
:1026A00080203340966C2B43956D28401843136D62
:1026B0001843536C0190029820F48075039843EA04
:1026C00005072A4B09F03F0503402B4443EA0B0959
:1026D00046F48053B3F5F05F02D1B8F1400F03D157
:1026E00027F4F05343EA0607D36C27F48046556D70
:1026F000052946EA03070AD81DA30498166B53F868
:1027000021300340481C06FA00F0034300E0049B1C
:102710000198CCF800000698C0F800900598076072
:102720000098C0F8D450CAF8A033C1EBC1001368B8
:1027300004EB800003625368436293688362D3684A
:10274000C36212690263204601F010FB00200121E0
:1027500084F8DC0084F8DD1007B0BDE8F08F00BF1E
:10276000FFF3FF01BFFF00FEFFFF02FEC0FFFF7F80
:10277000FFFFFDFFFFFFFBFFFFFFF7FFFFFFEFFF87
:10278000FFFFDFFFFFFFBFFFFFFBFF312DE9F04140
:10279000044690F8DD00022804BF0220BDE8F08165
:1027A00094F8DC300220012B08BFBDE8F0814FF027
:1027B000010884F8DD00194E84F8DC80206800EB05
:1027C000C11050F8EC3F92E8A01003EA060E013663
:1027D000D36827F4403706EA051545EA0E0623F4C8
:1027E000003337433B43976943EA0C03012F09D178
:1027F000D2E9047223F0060327F002073B431A4391
:1028000042F001030360204601F0B0FA002084F892
:10281000DC0084F8DD80BDE8F08100BFEFFFECFF55
:102820001B48034940680A6810440860704700BFAD
:102830003C13002080B5032000F072F8002000F067
:1028400007F808B1012080BD00F024F8002080BD09
:1028500070B50F4E04467068B0B14FF47A71B1FB99
:10286000F0F060490968B1FBF0F000F075FD01255A
:102870000F2C0AD848B94FF0FF302146002200251E
:1028800000F030F8346000E00125284670BD00BF3C
:102890000800002082B00B48816841F0010181608E
:1028A000816801F0010101910199016841F08051B5
:1028B0000160006800F080500090009802B000F0C5
:1028C00095B800BF58100240002808DB00F01F0137
:1028D0000122400902FA01F1014A42F82010704732
:1028E00000E100E080B5144B1B68C3F3022CBCF17F
:1028F000030E8CF007034FF0FF3C38BF4FF0000E83
:10290000042B28BF04230CFA03F399430CFA0EF3AB
:1029100001FA0EF19A431143BDE8804002F02EB94E
:1029200005494FF6FF030A681A4060F30A2203487C
:1029300010430860704700BF0CED00E00000FA058E
:1029400020B3D349B0F5007F0A6845D1D1F88000A3
:1029500040F48070C1F8800002F4C060B0F5806F70
:102960003ED10868012262F34A20322208601D48E5
:10297000006850431C4AB0FBF2F0C0434A6918B1EA
:10298000013012F48062F9D1486920E0C048016842
:10299000D0F8802001F4C06122F48072B1F5806F1C
:1029A000C0F880201CD10168012262F34A21322242
:1029B00001600C49096851430B4AB1FBF2F1C9436C
:1029C000426919B1013112F48062F9D140694005C0
:1029D00044BF0320704703E0022060F34A220A60EC
:1029E000002070471000002040420F00024801689C
:1029F00041F4804101607047087000402DE9FC41BE
:102A000004468078A14E000701D400205DE0F06C00
:102A1000C0000BD4F06C4FF0010840F08050F0641F
:102A2000F06C00F080500190019801E04FF0000838
:102A3000974F386840F480703860FFF7BDF805465E
:102A40003868C00506D4FFF7B7F8401B0228F7D94D
:102A5000032033E0D6F8840010F4407025D0216DB7
:102A6000884211D0D6F88400D6F8841041F4803121
:102A700020F44070C6F88410D6F8841021F4803118
:102A8000C6F88410C6F88400C0070ED0FFF794F88B
:102A9000054641F28837D6F88400800705D4FFF751
:102AA0008BF8401BB842F6D9D2E7D6F88400216DE6
:102AB00020F440700843C6F884000020B8F1000FED
:102AC0001EBFF16C21F08051F1642168CA0705D066
:102AD000F26F636822F003021A43F2678A0705D592
:102AE000F26FA36822F00C021A43F2674A0705D579
:102AF000F26FE36822F030021A43F2670A0705D545
:102B0000F26F236922F0C0021A43F267CA0605D5A4
:102B1000F26F636922F440721A43F2678A0605D5A0
:102B2000F26FA36922F440621A43F2674A0605D5A0
:102B3000F26FE36922F440521A43F2670A0605D5A0
:102B4000F26F236A22F440421A43F267CA0505D5A0
:102B5000F26F636A22F440321A43F2678A0307D5A0
:102B6000D6F89020A36A22F003021A43C6F89020F8
:102B70008A0505D5F26FE36A22F440221A43F26710
:102B80004A050DD5F26F236B22F44012B3F5801F76
:102B900042EA0302F26702BF326842F480123260F6
:102BA0000A050DD5F26F636B22F44002B3F5800F76
:102BB00042EA0302F26702BF326842F480123260D6
:102BC000CA040DD5F26FA36B22F04072B3F1807F7F
:102BD00042EA0302F26702BF326842F480123260B6
:102BE0008A040DD5F26FE36B22F04062B3F1006FFF
:102BF00042EA0302F26702BF326842F48012326096
:102C00004A040DD5F26F236C22F04062B3F1006FDD
:102C100042EA0302F26702BF326842F48012326075
:102C20000A040DD5F26F636C22F04052B3F1805F5D
:102C300042EA0302F26702BF326842F48032326035
:102C4000CA030DD5F26FA36C22F04042B3F1804F5E
:102C500042EA0302F26702BF326842F48032326015
:102C600049030FD5D6F89010E26C21F44011B2F56B
:102C7000001F41EA0201C6F8901002BF316841F41A
:102C80008011316002B0BDE8F08100BF0C1002403D
:102C9000007000402DE9F047002854D0724B0446E4
:102CA0000D46186800F00F00884209D2186820F01D
:102CB0000F0028431860186800F00F00A84242D1A6
:102CC0002068934E9A46C107B14602D14FF00008E2
:102CD0006BE06168032930D156F8081C890132D5B0
:102CE0007168726873687768B4460226C7F34167F3
:102CF00001F0030106EB4707864E032904BF41F2AA
:102D00000026C0F27A06C2F30311C3F30622013192
:102D1000B6FBF1F15143554AB1FBF7F1914224D989
:102D2000DCF80010664611F0F00F16D0800701D5D0
:102D3000A06890B14FF000081AE056F8080C02297C
:102D400004D1800304D40120BDE8F0874005FAD502
:102D500000F0AEF845498842ECD9306808214FF0C0
:102D6000800861F30710306002E04FF0000866460B
:102D70003068616820F0030008433060FEF71CFFF4
:102D8000064641F288374846D9F80000616800F0ED
:102D90000C00B0EB810F05D0FEF70EFF801BB84290
:102DA000F1D939E020684E465346810706D4B8F180
:102DB000800F16D1316821F0F00111E0410742BFC8
:102DC000316841F4E0613160010704D531680722C0
:102DD00062F30D2131603168A26821F0F0011143E6
:102DE0003160196801F00F01A9421AD9186820F062
:102DF0000F0028431860FEF7DFFE064641F28837D1
:102E00005046DAF8000000F00F00A84207D0FEF7A5
:102E1000D3FE801BB842F3D90320BDE8F0872068B9
:102E20004E46410705D53168E26821F4E06111435F
:102E30003160000706D53068216920F4605040EA0F
:102E4000C100306000F034F83168094AC1F3031161
:102E5000515C01F01F01C840134908600548006833
:102E6000BDE8F047FFF7F4BC0020024000B4C40402
:102E700059520008080000200B4825490B4A0068F9
:102E80000968C1F30221515C01F01F01C84070477D
:102E900005481F49054A00680968C1F3C221515C11
:102EA00001F01F01C840704710000020695200085F
:102EB0001749184A086800F00C000428104608BF9B
:102EC0007047086800F00C031348082B1ED00B68ED
:102ED00003F00C030C2B1CBF002070474B6803F061
:102EE0000303032B08BF02464868C0F303100130F8
:102EF000B2FBF0F04A68C2F306224968504302224E
:102F0000C1F3416102EB4101B0FBF1F0704700BF3A
:102F1000081002400024F40000127A002DE9FC4160
:102F2000002800F0AA8104460078DF4EC0071ED1B9
:102F30002078800747D42078000740F19A806169A3
:102F4000D6F89400002900F0838040F00100C6F814
:102F50009400FEF731FE0546D6F89400800700F194
:102F60008880FEF729FE401B0228F5D9C9E0B16828
:102F7000F06801F00C0108294BD0032281F00C010C
:102F800022EA00000844B0FA80F0400941D16768A5
:102F9000B7F5803F07D03068B7F5A02F40F0CC8060
:102FA00040F480203060306840F480303060FEF7BC
:102FB00003FE054630688003BAD4FEF7FDFD401BD2
:102FC0006428F7D99DE0B068F16800F00C0004288F
:102FD00028D001F0030180F00C0081F002010844C8
:102FE000B0FA80F040091DD1E1683068002900F096
:102FF0008A8040F480703060FEF7DEFD0546306860
:10300000400500F19180FEF7D7FD401B0228F6D95C
:1030100077E0306880037FF58BAF606800287FF42D
:1030200087AF2AE13068400503D5E068002800F04A
:1030300024817068216920F0FE4040EA01607060E0
:10304000C0480068FFF704FC002840F0168172E7D2
:1030500020F00100C6F89400FEF7AEFD0546D6F854
:103060009400800705D5FEF7A7FD401B0228F6D97E
:1030700047E02078400740F19A80B06DC0000BD443
:10308000B06D4FF0010840F08050B065B06D00F0B9
:1030900080500190019801E04FF00008AA4F386875
:1030A000C0050FD4386840F480703860FEF784FDA6
:1030B00005463868C00505D4FEF77EFD401B022892
:1030C000F7D91EE0A768012F07D0D6F89000052F8A
:1030D0004AD140F00400C6F89000D6F8900040F0C5
:1030E0000100C6F89000FEF767FD054641F28837FB
:1030F000D6F89000800753D4FEF75EFD401BB8421F
:10310000F6D90320BAE020F480703060FEF754FD59
:103110000546306840057FF50EAFFEF74DFD411BBB
:1031200003200229F5D9A9E07068216920F0FE404A
:1031300040EA01607060FEE620F480303060306864
:1031400020F480203060FEF737FD0546002F7FF425
:1031500031AF306880037FF5EBAEFEF72DFD411BEC
:1031600003206429F5D989E020F00100C6F8900019
:10317000D6F8900020F00400C6F89000FEF71CFD81
:103180000546002FB2D141F28837D6F8900080076B
:1031900006D5FEF711FD411B0320B942F5D96DE0BC
:1031A000B8F1000F1EBFB06D20F08050B0652078E0
:1031B000800627D5A169D6F8980089B140F00100B2
:1031C000C6F89800FEF7F8FC0546D6F89800800788
:1031D00018D4FEF7F1FC411B03200229F5D94DE07C
:1031E00020F00100C6F89800FEF7E6FC0546D6F888
:1031F0009800800706D5FEF7DFFC411B032002295B
:10320000F5D93BE0E069002800F09A80B16801F050
:103210000C010C2935D101282FD0F068216A00F06B
:1032200003028A4229D1616A6FF00F0202EB011199
:1032300000F0F0028A4220D1A16A00F4FE42B2EB13
:10324000012F1AD1E16A00F07842B2EBC16F14D1BC
:10325000216B404A02EA015100F4C002A1F50011BD
:103260008A420AD1616B4FF07E4200F0C06002EAF0
:10327000016101F17E41884262D0012002B0BDE8C7
:10328000F0813168022821F0807131600ED1FEF7A3
:1032900093FC0546306880011DD5FEF78DFC411B6F
:1032A00003200229F6D9E9E700100240F068274917
:1032B00020F00300F060F0680840F060FEF77CFC4E
:1032C0000446306880013BD5FEF776FC011B0320E5
:1032D0000229F6D9D2E704F12007F0686FF00F0554
:1032E0008ECF05EB02121A4D28400843216B104384
:1032F000184A40EA032002EA01514FF07E42A1F54C
:1033000000110843616B40EAC76002EA016101F104
:103310007E410843F060306840F080703060F068B3
:1033200040F08070F060FEF747FC04463068800192
:1033300006D4FEF741FC011B03200229F6D99DE7C4
:1033400000209BE70800002000700040FFFFEEFE19
:103350000C809F010000E0FF411E0020B0EB116FC8
:103360001CBF01207047044AF023516003490B70D1
:10337000072190601160704710E000E023ED00E04D
:10338000704770477047000090F83C20012A01D137
:1033900002215AE0F0B501222D4D80F83C20D1E900
:1033A00000C3D1E902422B4024F4705522F47C5230
:1033B0007C4C2A431A432CF477231A430B6923F4D9
:1033C00076231A434B691A430B6B22F4742223F4BD
:1033D00070231A438B6942EA03430268A24205D074
:1033E000434DAA4202D0434DAA4203D1CD6923F0F6
:1033F00080532B43A24205D03D4DAA4202D03D4D01
:10340000AA421CD1A4460D6AD1E90946114F23F006
:103410007C73624507EA065743EA070325F0007705
:1034200043EA070343EA040305D0314CA24202D029
:10343000304CA24203D1C96A23F000530B43002150
:10344000536480F83C10BDE8F0400846704700BF68
:10345000FF87F0FF0000F0FC7047704770470000E6
:1034600090F83C300222012B40D070B580F83D200E
:1034700001224C4D80F83C20026854689368AA42AF
:1034800005D01B4EB24202D01A4EB24203D14E6852
:1034900024F470043443184EB2F1804F06EA040657
:1034A0000C6846EA0406566013D0144CA24210D0B1
:1034B000134CA2420DD0134CA2420AD0AA4208D00B
:1034C0000C4CA24205D00A4CA24202D00E4CA242A1
:1034D00004D1896823F080031943916000220121FF
:1034E00080F83C2080F83D10BDE8704010467047E1
:1034F00000500140003401408FFFFFFD00040040F8
:1035000000080040000C004000400140704760B3DC
:1035100010B5044690F83D0028B9002084F83C001E
:10352000204600F025F80220211D84F83D00206887
:1035300000F0BAFF012084F8480084F83E0084F8C7
:103540003F0084F8400084F8410084F8420084F889
:10355000430084F8440084F8450084F8460084F869
:10356000470084F83D00002010BD01207047000096
:1035700000680C49884218BF7047E0B50A4800222D
:10358000016841F4006101600021006800F40060FE
:10359000019001981920FFF7A5F91920BDE88C408A
:1035A000FFF792B9002C014060100240B0B590F8CE
:1035B0003C2004460220012A08BFB0BD84F83D002B
:1035C0000120424D84F83C002068024652F8083F32
:1035D0002B4013600B682BB1102B03D0202B18BF8E
:1035E000302B0DD1106840490840184340F00700C7
:1035F00010600020012184F83C0084F83D10B0BD2B
:10360000402B2FD0502B39D0602B43D030488342F1
:10361000E8D0B3F5005F49D0B3F5801FE2D0B3F135
:10362000101FDFD02B488342DCD02B488342D9D0F7
:103630002A488342D6D02A488342D3D0294883429D
:10364000D0D0702BD5D1D1E90103C968184340EA25
:103650000120116821F47F4108431060106840F098
:103660007700C5E74B68CA68194600F097FF2268E3
:103670001D4952F8080F08404730B9E74B68CA683F
:10368000194600F08BFF2268174952F8080F0840CE
:103690005730ADE74B68CA68194600F090FF2268C2
:1036A000114952F8080F08406730A1E7D1E901033A
:1036B000C968184340EA0120116821F47F4108439A
:1036C0001060106840F4804092E700BF8800CEFF91
:1036D00070001000200010003000100040001000AA
:1036E000500010006000100088FFCFFF70470000FE
:1036F00010B5044600680169890744BFC1685FEAE4
:1037000081715AD40169490744BFC1685FEA4171B8
:103710005FD40169090744BFC1685FEA017165D4DC
:103720000169C90644BFC1685FEAC1616AD4016921
:10373000C9071CBFC1685FEAC17170D10169090680
:1037400044BFC1685FEA016171D40169C90544BF22
:10375000C1685FEA016172D40169490644BFC1686A
:103760005FEA416172D40169890644BFC1685FEABA
:10377000816173D40169C90244BFC1685FEAC12194
:1037800074D40169890244BFC1685FEA812174D49D
:103790000169490244BFC1685FEA412174D40169EB
:1037A000090246BFC1685FEA012110BD52490161AB
:1037B0002046BDE81040FFF7A9BE6FF0020101618D
:1037C000012121778069800765D02046FFF78EFFB1
:1037D00067E06FF00401016102212177806910F434
:1037E000407F62D02046FFF781FF64E06FF0080160
:1037F000016104212177C069800760D02046FFF76E
:1038000075FF62E06FF01001016108212177C06946
:1038100010F4407F5DD02046FFF768FF5FE06FF057
:1038200001010161204600F06BF8206886E76FF027
:10383000800101612046FFF7A4FD206885E72A4941
:1038400001612046FFF79CFD206885E76FF040018D
:103850000161204600F055F8206884E76FF02001F0
:1038600001612046FFF78EFD206883E71F49016153
:103870002046FFF7F2FD206883E71D4901612046DD
:10388000FFF7EAFD206883E71A4901612046FFF748
:10389000E5FD206883E7204600F030F8204600F080
:1038A0002EF80020207720682CE7204600F026F82C
:1038B000204600F024F800202077206829E72046E1
:1038C00000F01CF8204600F01AF80020207720684D
:1038D00026E7204600F012F8204600F010F80020FD
:1038E0002077206823E700BFFFFEFFFFFFFFEFFF09
:1038F000FFFFDFFFFFFFBFFFFFFF7FFF7047704746
:103900007047704790F87C10012901D1022112E024
:103910002421C0F8801002681368116821F00101A9
:1039200023F000531160002141661360202280F8CB
:103930007C10C0F88020084670477047B0B5044638
:1039400090F87C00012804BF0220B0BD2420C4F8F8
:103950008000012084F87C0020680568026822F05D
:1039600001020260826822F0606211438160204699
:1039700000F036FE206820210560002084F87C00DD
:10398000C4F88010B0BDB0B5044690F87C000128A2
:1039900004BF0220B0BD2420C4F88000012084F8B8
:1039A0007C0020680568026822F0010202608268DB
:1039B00022F0604211438160204600F011FE206831
:1039C00020210560002084F87C00C4F88010B0BD80
:1039D000704770477047000070B50368044640F6B2
:1039E0000F02D9691846D3F800C050F808EF114209
:1039F00049D06A4A0CEA0205694A02EA0E02AD1889
:103A00004BD0CD0718BF1CF4807507D001251D626F
:103A1000D4F8885045F00105C4F888500EF001052F
:103A20008E0708D53DB102261E62D4F8886046F0A4
:103A30000406C4F888604E0708D53DB104251D6210
:103A4000D4F8885045F00205C4F888500D070BD50E
:103A50000CF020052A4307D008221A62D4F88820E7
:103A600042F00802C4F888200A0532D51CF08062B2
:103A70002FD04FF4006225461A6255F8882F42F085
:103A800020022A6027E0880607D50CF020000EF0FF
:103A90008052801801D0E16E15E0C8020AD51EF4EC
:103AA000800007D04FF4801018622046BDE87040B7
:103AB000FFF78FBF08063ED50CF080000EF4000221
:103AC000801838D0216F002952D02046BDE87040C0
:103AD000084704F188052A68002A49D089060BD5D1
:103AE0000CF020010EF08052891805D0E16E19B15A
:103AF00020468847206808302968006801F02801BE
:103B000000F0400040182DD0204600F083FE2068D1
:103B10008168490621D5816821F040018160A06F4C
:103B2000D8B120498163FDF744FE08B3A06F816BD3
:103B3000BDE87040084701EA0C00400619D5186836
:103B400020F040001860002020672020C4F880008A
:103B50002046BDE8704000F0F9B82046BDE870404E
:103B6000FFF738BF2046FFF735FF0020C4F8880074
:103B700070BD080207D51CF0804004D02046BDE887
:103B80007040FFF725BFC801F2D5BCF1FF3FEFDC65
:103B90002046BDE87040FFF7D0BE00BF2001000402
:103BA000010000106D47000810B5B0B10446D0F810
:103BB000800028B9002084F87C00204600F026F818
:103BC0002420C4F880002068016821F00101016010
:103BD000204600F03FFE012801D1012010BDA06A5F
:103BE00010B1204600F026FD2068416821F4904184
:103BF0004160816821F02A018160016841F0010182
:103C000001602046BDE8104000F07EBD70B586B072
:103C1000044601A81421FCF72DFC206822498842A3
:103C20003FD1EE480026416941F48041416141693C
:103C300001F4804100910099016841F002010160A6
:103C4000C021006800F0020000900098022002905D
:103C50000191CDE90360072001A905901348FDF704
:103C6000EDFE134D1349192010228023C5E90010E1
:103C70004FF40050C5E90226C5E90436C5E90666D9
:103C800028622846FDF724FE08B1FDF7CBF9252070
:103C9000002100226567AC62FEF724FE2520FEF7B6
:103CA00013FE06B070BD00BF00380140000400489C
:103CB000081100201C000240B0B50546D0F8800075
:103CC000202806D179B313466AB395F87C00012801
:103CD00001D1022428E000240120A5F85630C5F8BF
:103CE0008840296585F87C002120A5F85430C5F866
:103CF0008000686FD0B1DFF848C0124ADFF848E0B2
:103D000000F12C0787E8045084632A682832FDF705
:103D10003FFE58B11020C5F88800002085F87C00CF
:103D20002020C5F8800001242046B0BD286840212D
:103D3000016285F87C40816841F080018160F3E791
:103D4000FF470008D74700087D47000870477047C5
:103D5000FC480068D0F88411490644BF4021C0F8EF
:103D60008811F8480221FDF7B2BF00BF062988BFBD
:103D70007047006804A252F82110D0F88423114340
:103D8000C0F88413704700BF020000000400000068
:103D900008000000100000002000000040000000AB
:103DA000010000002DE9F0410068551E072D00EBD1
:103DB000C1144FF00001A04658F8E4EF58F82CCC9D
:103DC00014D9102A18D0202A1ED0402A14D0802AB4
:103DD0001AD0B2F5807F0FD0B2F5007F14D0B2F5C3
:103DE000006F11D0B2F5806F06D014E0DFE805F067
:103DF000040C13041313130C5968C4F8BC1099680D
:103E0000C4F8C010002106E05968C4F8C4109968CD
:103E1000C4F8C8101021FE221D6803F10C071CF025
:103E2000022F02FA01F2D1CF2EEA020205FA01F5C1
:103E300042EA050200FA01F040EA020004FA01F247
:103E400040EA020006FA01F240EA020007FA01F233
:103E500042EA000201BF082CD86988400243C8F832
:103E60000020BDE8F081000010B5B64C2068016864
:103E700041F40021016020463021FEF738FB204646
:103E80004FF40021BDE81040FEF701BBFEE7C1F38F
:103E9000045CC1F34061072300EB810003FA0CF3DB
:103EA00002FA0CF2416999431143416170470000E5
:103EB000B0B588B068462021FCF7DCFA1F48204ADC
:103EC0004FF44031002401230425C0E900214FF4C0
:103ED0008071C0E90244C0E9044385618183022105
:103EE00001624FF4805180F82440C0E90B4480F80F
:103EF0003830C16380F84040FDF760FA08B1FDF743
:103F000091F806206946CDE901057F20CDE903053A
:103F10000C48059400900948FDF7A4F808B1FDF796
:103F200081F80C2069460190074800900348FDF78E
:103F300099F808B1FDF776F808B0B0BD3C10002044
:103F4000000600500200300404006008E0B512488A
:103F50000022016841F004010160016801F00401E0
:103F600001910199016841F001010160002100689F
:103F700000F00100009000980B20FEF7B3FC0B202E
:103F8000FEF7A2FC0C2000210022FEF7ABFC0C2067
:103F9000BDE88C40FEF798BC4810024083B00F4843
:103FA000016841F020010160016801F020010291E7
:103FB0000299016841F002010160016801F002010B
:103FC00001910199016841F001010160006800F070
:103FD00001000090009803B0704700BF4C100240F1
:103FE00070B5B8B000262DA81C21CDE93666CDE904
:103FF0003466FCF73FFA15AD60212846FCF73AFA23
:1040000009A824211496CDE91266FCF733FA01AC15
:1040100020212046FCF72EFAD1484B49C0E9001672
:104020008660FEF7A3F808B1FCF7FCFFCC480C2132
:10403000FDF7D1FD08B1FCF7F5FFC9480A21FEF7ED
:104040002DF908B1FCF7EEFF002647F2305034AAF4
:104050000221359634900320369008203790C048CE
:10406000FEF741F908B1FCF7DDFFBD482DAA02219A
:1040700030962D963396FEF789FB08B1FCF7D2FFF8
:10408000002601203021CDE91766CDE9156619908B
:1040900005F11400FCF7EEF94FF480702796022129
:1040A0002A462690AE48CDE92B66CDE92966FEF773
:1040B00033FA08B1FCF7B6FF43F6982012AB0221A1
:1040C00001221290A648FEF749F908B1FCF7AAFFB1
:1040D00028204FF44061002509AA0A900991CDE9F2
:1040E0000B55CDE90D509E480221CDE90F55119594
:1040F000FDF79AFD08B1FCF795FF04201421CDE9E6
:1041000001500820039004F10C00FCF7B3F9944827
:10411000022110222346FEF7CDF908B1FCF782FFF9
:10412000002001AB02212022CDE902008C48FEF7DD
:10413000C1F908B1FCF776FF8948FEF77FF838B07F
:1041400070BD00BF681100200068014010B594B038
:104150000024684634211394CDE91144CDE90F447D
:10416000CDE90D44FCF786F9C948174940F25132B0
:10417000C0E90014C0E90242C0E904448461FFF7C9
:10418000C6F908B1FCF74EFF4FF4805010A910900B
:10419000BF48FFF70BFA08B1FCF744FFBC48002406
:1041A0000DA9CDE90D440F94FFF75AF908B1FCF7BA
:1041B00039FFF94869460B940794FFF7E5F808B111
:1041C000FCF730FF14B010BD002C014010B5364C88
:1041D00016494FF4612000220C23C4E9001004F1B9
:1041E00018001421C4E90222C4E90423FCF742F9AF
:1041F0002046FFF7D9FC08B1FCF714FF2A4800213C
:10420000FFF7C1FB08B1FCF70DFF27480021FFF7BE
:1042100095FB08B1FCF706FF2348FFF773FB002866
:1042200014BFBDE8104010BDFCF7FCBE00380140D3
:10423000FEE7704770470000B0B52B4D2C6804E0D6
:104240002A680130531C2B60117001780029F7D1C6
:1042500000F032F82868001BB0BD00BF704703684B
:104260008B4204DA93421146D8BF01607047016067
:104270007047000010B51C4CD4E90001401A82B20E
:104280000948FFF719FD6168094B084A994218BFB0
:104290001A460028C4E9002204D00648BDE81040B0
:1042A000FFF7CABF10BD00BFB01200204C080020AD
:1042B0007C0000209A52000810B50B48D0E900108D
:1042C0000C1A40F2A37084423CBF002010BDFFF7DF
:1042D000D1FFB4F5FA6F9CBF012010BD03A0FFF71A
:1042E000ABFF022010BD00BF000000204F5645521A
:1042F000464C4F5700000000BCB510EE100A00F00D
:104300000DFF9FED130B02460B4651EC100B00F016
:104310007FFC04460D4600F0D3FD019001A84FF646
:10432000F7711822FFF79BFF9FED0B0B20462946E4
:1043300053EC102B00F0F4FD094A1468BDF804207A
:10434000C4F8942100F0BCFDC4F89C01BCBD00BFC2
:1043500000000000FD43C441000000000000E03FF9
:1043600068110020FEF75CBAF0B5A9B01BAD1421AE
:1043700005F10800FCF77EF801AC4C2104F10800BF
:10438000FCF778F800200026FEF7DAFA0120032770
:1043900055211B904FF480301C9002202290CDE9D3
:1043A0002370CDE92510CDE927002846FEF7B6FD9C
:1043B0000F200421CDE9160716A8CDE918661A9634
:1043C000FEF768FC4FF00110CDE901064FF0004008
:1043D00013902046FEF712FB29B0F0BD0548D0F837
:1043E000801041F47001C0F880104FF0006101604E
:1043F000704700BF08ED00E02DE9F047244F386812
:104400000069C0073AD0FCF70FFE224C2068411C1F
:10441000002821602CD12049D1E9010A00F07EFE5C
:104420009FED190B56EC105B2A46334600F078FDE1
:1044300081465046884600F071FE002233462260D5
:104440002A4600F06DFD04460D464846414600F000
:1044500037FD06462046294600F032FD0F4C034644
:104460000FA132462068FBF7EFFF21680844206067
:10447000FFF722FF38686FF0010101610448BDE8D1
:10448000F047FFF735B900BF0000000000408F4043
:1044900064120020780000201C1000200000002082
:1044A00025640925640D0A000268B0F1804F11D01F
:1044B000294B98420ED0294B98420BD0284B98425A
:1044C00008D0284B984205D0274B984202D0274B62
:1044D000984203D14B6822F070021A43B0F1804F2A
:1044E0001AD01D4B984217D01C4B984214D01C4B2D
:1044F000984211D01B4B98420ED01C4B98420BD0C7
:104500001B4B984208D01B4B984205D0164B984243
:1045100002D0194B984203D1CB6822F440721A435F
:104520004B6922F080021A4302608A68C2620A68FC
:104530008262124A02444FEAB222092A08D80123B1
:1045400003FA02F240F2E5231A421CBF0969016333
:1045500001214161704700BF000400400008004095
:10456000000C0040002C014000500140003401408C
:1045700000400140004401400048014000D4FEBF1B
:1045800005480068C16841F00101C160016841F05F
:1045900001010160704700BF64120020D0F820C004
:1045A000036A23F001030362836923F0F00343EA03
:1045B000021282612CF00A02114301627047036A01
:1045C00023F010030362836923F4704343EA023249
:1045D000036A826123F0A00242EA0111016270477E
:1045E000416ED9B180B50268DFF840C0DFF840E025
:1045F0009168C1F3426192681CF801301EF8011005
:10460000520FC900B1FBF3F11CF802301EF8022072
:10461000D200B2FBF3F2BDE8804001E001220121AB
:10462000A0F86810A0F86A20704700BF92520008F6
:104630008A520008816ACA0708D002685368D0F815
:104640002CC023F4003343EA0C0353608A0708D5D7
:1046500002685368D0F830C023F4803343EA0C0377
:1046600053604A0708D502685368D0F834C023F471
:10467000802343EA0C0353600A0708D50268536895
:10468000D0F838C023F4004343EA0C035360CA0651
:1046900008D502689368D0F83CC023F4805343EAFD
:1046A0000C0393608A0608D502689368D0F840C06E
:1046B00023F4005343EA0C03936080B54A0615D5F2
:1046C000D0F800E0DEF804C0436C2CF48012B3F59F
:1046D000801F42EA0302CEF8042007D1DEF804204E
:1046E000836C22F4C0021A43CEF804200906BDE808
:1046F000804058BF704701684A68C06C22F40022AD
:104700001043486070470000BCB504460020C4F860
:104710008800FDF751FA05462068016809070AD5A7
:1047200011484FF4001100222B460090204600F063
:10473000ABF968B92068006840070BD50A484FF408
:10474000800100222B460090204600F09DF908B120
:10475000032007E020210020C4F8801084F87C00AA
:10476000C4F8841002B0B0BDFFFFFF01806A0021D1
:10477000A0F85E10A0F85610FFF72CB9B0B5846A07
:10478000D4F88020D4F88450206850F8081F212ADB
:104790000AD111F0800107D00020A4F8560020466D
:1047A00000F04AF8206808300068222D08D110F087
:1047B000400005D00020A4F85E00204600F02AF852
:1047C000D4F8880040F01000C4F888002046BDE806
:1047D000B040FFF7FFB80168806A0968890648BFE2
:1047E000FFF7B4BA0021A0F856100068816821F0E4
:1047F00080018160016841F0400101607047806A7A
:10480000FFF7A5BACA480068016841F001010160DC
:10481000704700BF0168074B0A6822F490720A6073
:104820008A681A408A600021C1662021C0F884107D
:10483000704700BFFEFFFFEF01680A6822F0C00268
:104840000A608A6822F400028A602021C0F8801081
:1048500070470000F8B50646426ED0F81CC00168EB
:104860008368D0E904507B4F2B430C687A4D184382
:104870007A4B40EA0C002740A94240EA020040EA95
:10488000070008604868F26820F4405040EA0200DF
:104890004860B2691CBF306A024388681840104300
:1048A0008860C86A726A20F00F001043C8626C48C2
:1048B00081421CD06B4881421BD06B4881421AD088
:1048C0006A48814219D0A94219D06948814240F012
:1048D000568068496848096800F5806081F00201E7
:1048E00001F0030141EA810120FA01F315E00223FE
:1048F00006E0042304E0062302E0082300E00A2384
:104900005C480068D8405C4B80F0020000F0030077
:1049100040EA8000C340A94221D003F01F030120D8
:10492000BCF5004F0DD1082B00F28C805349DFE815
:1049300003F0054E5989518989895700FEF79CFA81
:104940004AE0082B00F27E804C49DFE803F0055E68
:10495000697B617B7B7B6700FEF78EFA5AE003F090
:104960001F030120082B6DD84449DFE803F0056BD5
:10497000136B0A6B6B6B1100FEF77EFA03E01023DA
:10498000C9E7FEF795FA0146002858D0726A01E09F
:104990004FF400413A4830F812007268B1FBF0F170
:1049A00002EB4203012099424CD31303994249D8A8
:1049B00008020B0E10EB520043F100010023FBF73D
:1049C000CBFC304AA0F54071914236D939E0FEF770
:1049D0005FFA01E0FEF76CFA014680B3726A01E00B
:1049E0004FF40041264830F81200B1FBF0F0716836
:1049F0004A0802EB4000B0FBF1F04FF6F0710140C5
:104A00001FD0C0F34200084317E0FEF741FA01E06F
:104A1000FEF74EFA014690B1726A01E04FF4004190
:104A2000174830F81200B1FBF0F0716800EB51004C
:104A3000B0FBF1F080B2102803D33168C8600020C9
:104A400000E0012000214FF00112C6E91A21316770
:104A500001B0F0BDF369FFCF00800040FFF4FF110B
:104A60000044004000480040004C0040005000401E
:104A70000038014088100240020102000024F400C6
:104A800072520008FFFC0F002DE9F843DDF820907A
:104A90000F46016898461646044609F10105C869A3
:104AA0003840C01BB0FA80F04009B04225D1002D3B
:104AB000F5D0FDF781F82168B9F1000F0A6820D020
:104AC000A0EB080048451CD8500744BFC8695FEAFE
:104AD0000050E4D54FF400600862086820F4D070FC
:104AE0000860886820F0010088602020C4F88000F9
:104AF000C4F8840004F188000FE0002001B0BDE894
:104B0000F08322F4D0700860886820F0010088608B
:104B10002020C4F8800004F18400202101600020DE
:104B200084F87C000320E9E70148FEF755BF00BF89
:104B3000B0120020FEE7000010B59FED0B0A094CF3
:104B40000948E060FFF7D8FB08480949094A0A4BC1
:104B5000C4E90410C4E90623FCF7E2F9BDE81040FB
:104B6000FFF782B91C10002000007A44999962C2B4
:104B70009999E23CF06C0C3DF06C8CC210B5074C7E
:104B800000F00F03044AB0F1FF3F2344C8BF83186D
:104B90000801187010BD00BF00E400E014ED00E053
:104BA000FDF748FEFFF7E0FBFFF7F8F9FFF7CEF956
:104BB000FFF77EF9FFF714FAFFF708FBFFF7C6FAD5
:104BC0004FF4FA70FCF728FFFFF71CFEFFF7B4FF65
:104BD000FFF7D6FCFEE730380A2801D201207047E3
:104BE0000020704710B500290AD00878002807D0A7
:104BF00005487844FCF750F8002801D0002010BD8B
:104C00000248784410BD0000DE060000D606000011
:104C10002DE9C04130B4DFF8A0C23CEA111418BF3E
:104C20003CEA131400F0EC801CEA111481EA03053D
:104C300044EAD57418BF1CEA131500F0C780A4EB32
:104C4000050404F17F7404F500344FF0004545EA93
:104C5000C12145EAC32341EA505143EA52534FEA86
:104C6000C0204FEAC222994208BF904200F09C80C7
:104C70004FEA13650FF24016765D4FEA134506FBC7
:104C800005F7C7F1807706FB07F74FEAD737A7FB91
:104C900003687642A7FB06CEC8F5803838BFA8F176
:104CA000010807FB08E6A6FB028C4FF0000EE6FBAE
:104CB00003CEDCF1000CCEF1004E38BFAEF1010E98
:104CC000A6FB0C584FF00007E6FB0E87A1FB08C6B9
:104CD000A0FB07CE16EB0E064FF0000545F10005D0
:104CE000E1FB076515F1E04E7EBFA4F580345FEA75
:104CF00046066D4116F1800745F100054FEA17277A
:104D000047EA05674FEA15254FEA0666A6F1DE4633
:104D1000B6F1805F1FD9384605EBC47124F0010C51
:104D200001EB0C11BCF1FE6F02D8F0BCBDE80081B4
:104D300024425CBF01F5801E9EEAC47F02D4F0BC11
:104D4000BDE80081244238D4A1F1C041F0BCBDE8E7
:104D5000004100F0DDB94FEAD02040EA41504FEA6F
:104D6000D1214FEAD22242EA43524FEAD323A7FB92
:104D7000028607FB036605FB02661EEA0E0F58BF9C
:104D8000A6EB0056B6EB00564FEA520E4EEAC37E33
:104D900018EB0E0E56EB530EBDD518EB02085E4114
:104DA0007F1C55F10005B6E74FF480154FF0000762
:104DB0004FF000064FF00008ADE701F1C04101F0EF
:104DC00000414FF00000F0BCBDE800810CEA131573
:104DD00011EA0C1F00D00CE013EA0C1F00F0258034
:104DE0004FF0000081EA030101F00041F0BCBDE892
:104DF0000081F0BCBDE8004181EA030100F088B900
:104E0000F0BCBDE8004170B500F034F9097EFC3E0D
:104E100000F007B84FF0000081EA030101F0004103
:104E2000704781EA030100F073B9F0BCBDE80041AE
:104E300022494FF000007047FFFDFBF9F7F5F4F24F
:104E4000F0EEEDEBE9E8E6E4E3E1E0DEDDDBDAD825
:104E5000D7D5D4D3D1D0CFCDCCCBCAC8C7C6C5C483
:104E6000C2C1C0BFBEBDBCBBBAB9B8B7B6B5B4B39A
:104E7000B2B1B0AFAEADACABAAA9A8A8A7A6A5A485
:104E8000A3A3A2A1A09F9F9E9D9C9C9B9A99999849
:104E90009797969595949393929191908F8F8E8EEC
:104EA0008D8C8C8B8B8A8989888887878685858479
:104EB00084838382828181800000FF070000F87F65
:104EC0004FEA41034FEA5353A3F58063D3F11E0326
:104ED000C8BFD3F1210C0CDD4FF0004242EAC122E1
:104EE00042EA505232FA03FC8CEAE17CACEBE1700E
:104EF0007047102BC4BF0020704703F5787CBCF1CD
:104F0000FF3F04D06FF0004282EA2100704770B585
:104F100000F0B0F84992248000207047F2E70000CA
:104F200070B5DFF848C11CEA111E1EBF1CEA13153C
:104F30009EEA0C0F95EA0C0F00F06F8081EA0304E3
:104F40004EEAD47EAE4421EA4C1123EA4C1341F4DC
:104F5000801143F48013AEF17F7EA1FB024CA0FBD5
:104F60000365361955EB0C05A1FB034C4CF100030E
:104F7000A0FB021C16EB0C06654153F1000309422D
:104F800018BF46F0010613F4007F0BD14FEA03313E
:104F90004FEA053041EA155140EA165034036FF0EC
:104FA00003020AE04FEAC3214FEAC52041EA555106
:104FB00040EA5650F4026FF0020202EB2E4201EB7F
:104FC000025585EACE710AD05FEA440C18BF24F07E
:104FD000004450F1000041F1000120EAD47040F299
:104FE000FE7C624500D270BDA84214BF4FF08044E1
:104FF0004FF04044002E08BF0024BEF1806FA8BFD0
:10500000A1F1C041BDE8704080F2828001F1C04151
:1050100001F000414FF0000070470CEA13159EEAC2
:105020000C0F18BF95EA0C0F06D081EA030E4FF063
:1050300000000EF0004170BD00F01CF88900013E38
:1050400000F007B800F009B84FEA430C5FEA5C5C77
:1050500008D081EA030100F05BB84FEA410C5FEA37
:105060005C5CF6D102494FF0000070470000FF077A
:105070000000F87F0EF1020E2EF0030E5EF8046BB6
:10508000364205D4012A43EB030515F5001F12D85B
:10509000012841EB010C1CF5001F0CD80ED14FEA82
:1050A000D17C0CEB4C0C0CF1020C15F5001F08BF69
:1050B0004CEBD37C04E04FF0080C01E04FEAD37CCA
:1050C0000CEB4C0526FA05F606F00706B6F1040CC3
:1050D00006D20EEB860CBDE870404CF0010C604728
:1050E000DFE80CF0090B02024FF00041A1F50021AE
:1050F0004FF0000070BD19461046012851EB010425
:1051000018BFD4F5001484BF002001F0004170BD29
:105110000808A0F500114FEA3101704743004FEA3B
:10512000D30C4FEA3C0C43401FBF40070CF16051C9
:1051300013F0FE4F70471CF0006F03D10CF00041DC
:10514000002070470CF0004343EA507040EACC0066
:1051500010B500F00EF800BF000000924FEA000109
:10516000FFF7D6BF4FF00041A1F500214FF000003E
:1051700070470EF1020E2EF0030E5EF8044B24422F
:1051800004D44FEA4102B2F17F4F11D84FEA4003F5
:10519000B3F17F4F0CD80ED14FEAD07C0CEB4C0C06
:1051A0000CF1020CB2F17F4F08BF4CEBD17C04E054
:1051B0004FF0080C01E04FEAD17C0CEB4C0324FAD1
:1051C00003F404F00704B4F1040C06D20EEB840CD3
:1051D000BDE810404CF0010C6047DFE80CF0070818
:1051E00002024FF00040A0F5800010BD08464200CA
:1051F00018BFD2F1807288BF00F0004010BDF1EE00
:10520000100A4FF6FF71C0F2C03120EA010040F0F1
:105210004070E1EE100A704700000000000000003E
:1052200030313233343536373839414243444546DC
:1052300040305800303132333435363738396162D6
:1052400063646566403078000400000800000000D8
:10525000000000020001000010000000000000003B
:105260000001020304060708090000000001020310
:105270000400010002000400060008000A000C00FF
:10528000100020004000800000010101010307011F
:1052900000000804020408010101444D415F427509
:1052A000666665725F4F766572666C6F770D0A0091
:1052B000E05300080000002018000000140200085D
:1052C000F8530008180000202819000030020008D8
:1052D0001001000043000000F8FFFFFF00404040C5
:1052E00040404040404041414141414040404040B9
:1052F0004040404040404040404040404005020265
:105300000202020202020202020202020220202023
:10531000202020202020200202020202020290907F
:10532000909090901010101010101010101010107D
:1053300010101010101010100202020202028888D1
:1053400088888888080808080808080808080808DD
:1053500008080808080808080202020240000000C5
:10536000000000000000000000000000000000003D
:10537000000000000000000000000000000000002D
:10538000000000000000000000000000000000001D
:10539000000000000000000000000000000000000D
:1053A00000000000000000000000000000000000FD
:1053B00000000000000000000000000000000000ED
:1053C00000000000000000000000000000000000DD
:1053D00000000000000000000000000000000000CD
:1053E0007C0000207C000020100000000100000074
:0853F0000024F400000000009D
:04000005080001D915
:00000001FF
